:100000000C9409020C943A020C943A020C943A02B1
:100010000C943A020C943A020C943A020C943A0270
:100020000C943A020C943A020C943A020C943A0260
:100030000C943A020C943A020C943A020C943A0250
:100040000C943A020C943A020C943A020C943A0240
:100050000C943A020C943A020C943A020C94180C48
:100060000C943A020C94E20B0C94B80B0C943A02E8
:100070000C943A020C943A020C943A020C943A0210
:100080000C943A020C943A020C943A020C943A0200
:100090000C943A020C943A020C943A020C943A02F0
:1000A0000C943A020C943A020C943A020C943A02E0
:1000B0000C943A020C943A020C943A020C943A02D0
:1000C0000C943A020C943A020C943A020C943A02C0
:1000D0000C943A020C943A020C943A020C943A02B0
:1000E0000C943A020C9468060C9478020C943A032F
:1000F0000C94AD050C9487060C9442050C94F605FF
:100100000C9417070C94AF030C94BD030C943C02A1
:100110000C946B0F0C9497030C94F8060C94B90391
:100120000C9416060C9469020C94A5030C94EC0430
:100130000C9493030C949A020C943F060C9464075D
:100140000C9486030C9482030C949D030C94780306
:100150000C94B0060C947E030C9465050C94400737
:100160000C948D030C94A1030C94D4060C948E056E
:100170000C948A030C94B3030C94B8030C94D2022D
:100180000C94620C0C94AB030C94D6050C948C026A
:10019000457865637574696F6E2063616E63656C25
:1001A0006C656420696E697420636F6E646974693C
:1001B0006F6E73206E6F74206D617463682E0A0D0C
:1001C00000556E6B6E6F776E20636F6D6D616E6440
:1001D0002E205573652068656C7020636F6D6D61AE
:1001E0006E642E0A0D000D0A68656C7020202020B8
:1001F000202020202020203A2053686F777320751C
:100200007361626C6520636F6D6D616E64732E0A3D
:100210000D696E69742020202020202020202020BD
:100220003A2053657473206D616368696E6520655B
:100230006C656D656E747320746F20696E69746986
:10024000616C20636F6E646974696F6E732E0A0D42
:1002500072756E20202020202020202020202020A9
:100260003A2052756E20746865206D61696E207049
:10027000726F6772616D2E0A0D0A0D70617573657C
:100280002020202020202020203A205061757365F6
:1002900020746865206D61696E2070726F6772618D
:1002A0006D2E0A0D726573756D652020202020204B
:1002B000203A20526573756D6520746865206D6104
:1002C000696E2070726F6772616D2E0A0D000000FA
:1002D0002100240027002A002D00300033000101F6
:1002E0000000040107010A01000022002500280087
:1002F0002B002E003100340002010000050108012E
:100300000B01000020002300260029002C002F00F4
:100310003200000100000301060109010505050581
:10032000070508080808020202020A0A080804046D
:10033000040401010101010101010303030303039B
:100340000303040707070C0C0C0C0C0C0C0C02022A
:10035000020206060606060606060B0B0B0B0B0B27
:100360000B0B0102102020080810204010204080B4
:100370000201020108040201010204081020408069
:1003800080402010080402018004020180402010F7
:100390000804020108040201010204081020408040
:1003A000010204081020408000000A0B02090C0D15
:1003B0000E08070304010000000000000000000018
:1003C000000000000000000000000000000000002D
:1003D00000000000121110000000000000000000EA
:1003E000000000000000000000000000000050615C
:1003F000757365642E0A0D0052756E6E696E672EF8
:100400000A0D0053746F707065642E0A0D00620C43
:100410006B0F11241FBECFEFD1E2DEBFCDBF00E0D6
:100420000CBF24E0ACEBB3E001C01D92AE3AB207C2
:10043000E1F713E0A0E0B2E0E2E1F7E200E00BBF99
:1004400002C007900D92AC3BB107D9F712E0C8E0AB
:10045000D2E000E006C021970109802FFE010E9432
:100460004211C730D10780E00807A9F70E94390D73
:100470000C9477130C940000AF92BF92CF92DF924E
:10048000EF92FF920F931F93CF93DF936C017B0149
:100490008B01040F151FEB015E01AE18BF08C017DA
:1004A000D10759F06991D601ED91FC910190F0814D
:1004B000E02DC6011995892B79F7C501DF91CF9100
:1004C0001F910F91FF90EF90DF90CF90BF90AF9072
:1004D0000895FC01538D448D252F30E0842F90E04A
:1004E000821B930B541710F0CF960895019708952F
:1004F000FC01918D828D981761F0A28DAE0FBF2FF8
:10050000B11D5D968C91928D9F5F9F73928F90E04D
:1005100008958FEF9FEF0895FC01918D828D9817BC
:1005200031F0828DE80FF11D858D90E008958FEFF9
:100530009FEF0895FC01918D228D892F90E0805CC2
:100540009F4F821B91098F739927089583EF93E042
:100550000E949A0221E0892B09F420E0822F08955D
:10056000FC01A48DA80FB92FB11DA35ABF4F2C9128
:10057000848D90E001968F739927848FA689B7891F
:100580002C93A089B1898C91837080648C93938D16
:10059000848D981306C00288F389E02D80818F7DB9
:1005A00080830895EF92FF920F931F93CF93DF9371
:1005B000EC0181E0888F9B8D8C8D98131AC0E8899F
:1005C000F989808185FF15C09FB7F894EE89FF896E
:1005D0006083E889F98980818370806480839FBF0C
:1005E00081E090E0DF91CF911F910F91FF90EF900C
:1005F0000895F62E0B8D10E00F5F1F4F0F7311271C
:10060000E02E8C8D8E110CC00FB607FCFACFE88956
:10061000F989808185FFF5CFCE010E94B002F1CF2C
:10062000EB8DEC0FFD2FF11DE35AFF4FF0829FB7CA
:10063000F8940B8FEA89FB8980818062CFCF0F937A
:100640001F93CF93DF938C01D0E0C0E0F801EC0F53
:10065000FD1F6491662341F083EF93E00E94D20274
:10066000892B11F02196F2CFCE01DF91CF911F910E
:100670000F910895CF93DF93EC01888D8823B9F013
:10068000AA89BB89E889F9898C9185FD03C080819D
:1006900086FD0DC00FB607FCF7CF8C9185FFF2CF1A
:1006A000808185FFEDCFCE010E94B002E9CFDF91BE
:1006B000CF9108958150823108F05AC0E82FF0E0C0
:1006C0008827EA59FC4F8F4F0C94421186038A0306
:1006D00078037E038203B8038D03930397039D037E
:1006E000A103A503AB03AF03B803B303B903BD0371
:1006F000809180008F7780938000089580918000A2
:100700008F7DF9CF80918000877FF5CF84B58F777B
:1007100084BD089584B58F7DFBCF8091B0008F7725
:100720008093B00008958091B0008F7DF9CF8091C3
:1007300090008F77809390000895809190008F7D36
:10074000F9CF80919000877FF5CF8091A0008F77BF
:100750008093A00008958091A0008F7DF9CF8091B3
:10076000A000877FF5CF809120018F7780932001B3
:100770000895809120018F7DF9CF80912001877F9E
:10078000F5CFCF93DF93282F30E0F901E855FC4FE8
:100790008491F901EE59FC4FD491F901E45EFC4FCC
:1007A000C491CC23A1F081110E945A03EC2FF0E0F8
:1007B000EE0FFF1FEE5FFC4FA591B491EC91ED237E
:1007C00081E090E009F480E0DF91CF91089580E02E
:1007D00090E0FACF1F93CF93DF93282F30E0F901F9
:1007E000E855FC4F8491F901EE59FC4FD491F90181
:1007F000E45EFC4FC491CC23A9F0162F81110E9416
:100800005A03EC2FF0E0EE0FFF1FE851FD4FA591CA
:10081000B4918FB7F894EC91111108C0D095DE23F4
:10082000DC938FBFDF91CF911F910895DE2BF8CF1E
:10083000CF93DF9390E0FC01EE59FC4F2491845E4E
:100840009C4FFC0184918823D1F090E0880F991F80
:10085000FC01E253FD4FA591B491FC01E851FD4F1D
:10086000C591D49161110EC09FB7F8948C91E22F7D
:10087000E0958E238C932881E223E8839FBFDF914C
:10088000CF9108958FB7F894EC91E22BEC938FBF42
:10089000F6CF3FB7F8948091C2039091C303A09123
:1008A000C403B091C50326B5A89B05C02F3F19F01E
:1008B0000196A11DB11D3FBFBA2FA92F982F8827E0
:1008C000BC01CD01620F711D811D911D42E0660FBB
:1008D000771F881F991F4A95D1F70895EDECF3E033
:1008E000108284E081838AE0828388E0838383E0CE
:1008F000848387E085839EE096838093EF038FEF68
:100900009FEF90930102809300021092F0031092E7
:10091000F1030895CF93DF93EC0188810E94C10316
:1009200061E0892B09F060E088810E94EA038E81F2
:100930009F818230910538F0880F991F880F991F89
:1009400005970197F1F7DF91CF9108951092F20387
:1009500060E08BE00E94EA0361E08CE00E94EA0321
:1009600060E08DE00E94EA038EEE93E00C941F039A
:100970008091CA03813011F40C94A604089560E0BC
:100980008FE20E94EA038091F0038F5F8093F0036F
:100990000C94B8048091F0038F5F8093F0030C9463
:1009A000B804FC0101900020E9F73197AF01481B22
:1009B000590BBC0183EF93E00C943C02CF93DF937F
:1009C0000E94D104EC018CE392E00E94D1048C0FD0
:1009D0009D1FDF91CF9108952091F0038091000237
:1009E000909101022817190699F08FE392E00E9476
:1009F000DE0461E08CE20E94EA0361E08BE20E9487
:100A0000EA038091F00390E090930102809300024A
:100A100086E10E94C103892B19F481E08093BC0315
:100A200086E10E94C103019761F58091BC03882390
:100A300041F186E10E94C103892B91F41092F203E7
:100A400060E08BE00E94EA0360E08CE00E94EA0331
:100A500061E08DE00E94EA0384E492E00C94D1040A
:100A600060E08CE20E94EA0360E08BE20E94EA030D
:100A70001092BC038091F0038F5F8093F0030C947D
:100A8000B80408952091F003809100029091010232
:100A90002817190699F085E592E00E94DE0460E0CF
:100AA0008CE20E94EA0360E08BE20E94EA038091FC
:100AB000F00390E090930102809300028091F00394
:100AC0008F5F8093F0030C94B8042091F003809121
:100AD0000002909101022817190679F085E592E04D
:100AE0000E94DE0461E08CE20E94EA038091F00340
:100AF00090E0909301028093000286E10E94C1037E
:100B0000019759F460E08CE20E94EA038091F003BF
:100B10008F5F8093F0030C94B80408952091F00344
:100B200080910002909101022817190679F08AE558
:100B300092E00E94DE0460E08DE20E94EA03809170
:100B4000F00390E090930102809300028091F00303
:100B50008F5F8093F0030C94B8042091F003809190
:100B60000002909101022817190679F08FE592E0B2
:100B70000E94DE0461E08DE20E94EA038091F003AE
:100B800090E0909301028093000282E20E94C103F0
:100B9000019759F460E08DE20E94EA038091F0032E
:100BA0008F5F8093F0030C94B80408952091F003B4
:100BB00080910002909101022817190679F084E6CD
:100BC00092E00E94DE0461E08FE20E94EA038091DD
:100BD000F00390E090930102809300028EE10E9466
:100BE000C103019711F40C94BF0408952091F00300
:100BF00080910002909101022817190679F089E688
:100C000092E00E94DE0461E08FE20E94EA0380919C
:100C1000F00390E090930102809300028FE10E9424
:100C2000C103019711F40C94BF0408952091F003BF
:100C300080910002909101022817190679F08EE642
:100C400092E00E94DE0461E08EE20E94EA0380915D
:100C5000F00390E0909301028093000280E20E94F2
:100C6000C103019721F460E08EE20E94EA0383E26F
:100C70000E94C103019711F40C94CA0408952091B5
:100C8000F00380910002909101022817190679F073
:100C900083E792E00E94DE0461E08EE20E94EA03B4
:100CA0008091F00390E0909301028093000281E232
:100CB0000E94C103019759F460E08EE20E94EA03AA
:100CC0008091F0038F5F8093F0030C94B804089533
:100CD0002091F003809100029091010228171906DB
:100CE00079F088E792E00E94DE0460E080E30E94F1
:100CF000EA038091F00390E0909301028093000258
:100D00008091F0038F5F8093F0030C94B8042091DE
:100D1000F00380910002909101022817190679F0E2
:100D20008EE792E00E94DE0461E080E30E94EA0325
:100D30008091F00390E090930102809300028DE196
:100D40000E94C103019759F460E080E30E94EA0326
:100D50008091F0038F5F8093F0030C94B8040895A2
:100D60002091F0038091000290910102281719064A
:100D700081F084E892E00E94DE0461E080919704B3
:100D80000E94EA038091F00390E090930102809327
:100D900000028BE10E94C103019721F086E994E0F3
:100DA0000C948A040C94CA042091F00380910002F0
:100DB000909101022817190681F089E892E00E94BB
:100DC000DE0460E0809197040E94EA038091F003C2
:100DD00090E090930102809300028CE10E94C10395
:100DE000019721F086E994E00C948A040C94CA04DB
:100DF0002091F003809100029091010228171906BA
:100E000079F08EE892E00E94DE0460E083E30E94C5
:100E1000EA038091F00390E0909301028093000236
:100E20008091F0038F5F8093F0030C94B8042091BD
:100E3000F00380910002909101022817190679F0C1
:100E400084E992E00E94DE0461E083E30E94EA0309
:100E50008091F00390E090930102809300028AE178
:100E60000E94C103019759F460E083E30E94EA0302
:100E70008091F0038F5F8093F0030C94B804089581
:100E80002091F00380910002909101022817190629
:100E900081F08AE992E00E94DE0461E08091A10481
:100EA0000E94EA038091F00390E090930102809306
:100EB000000288E10E94C103019721F080EA94E0DA
:100EC0000C948A040C94CA042091F00380910002CF
:100ED000909101022817190681F08FE992E00E9493
:100EE000DE0460E08091A1040E94EA038091F00397
:100EF00090E0909301028093000289E10E94C10377
:100F0000019721F080EA94E00C948A040C94CA04BE
:100F10008F929F92AF92BF920F931F93CF93DF93C5
:100F2000CDB7DEB7A1970FB6F894DEBF0FBECDBF29
:100F300019A2423008F44AE08E010F5D1F4F842E43
:100F4000912CB12CA12CA50194010E942011E62F17
:100F5000B901CA01EA30F4F4E05DD801EE938D01E5
:100F6000232B242B252B79F790E080E0109719F0A4
:100F7000CD010E94D104A1960FB6F894DEBF0FBE3A
:100F8000CDBFDF91CF911F910F91BF90AF909F90F8
:100F90008F900895E95CE1CFCF93DF93BC0190E09F
:100FA00080E04AE00E948807EC018CE392E00E9416
:100FB000D1048C0F9D1FDF91CF9108951F93CF9384
:100FC000DF93EC01188190E080E00E94691018170F
:100FD00029F0612F90E080E00E947110198181E07A
:100FE00090E00E946910181729F0612F81E090E0CD
:100FF0000E947110CE01DF91CF911F9108950C9442
:101000006910CF9381E090E00E94FF07C82F90E025
:1010100080E00E94FF072C2F30E0322F2227820F22
:10102000932F911DCF9108950E9401088F3F98073B
:10103000E1F09093CC038093CB031092EE031092D7
:10104000ED0382E090E00E94FF078F3FC9F080939C
:10105000CA0386E10E94C1030197D1F084EA92E0BD
:101060000E94DE0480E991E0BFC081E090E09093AF
:10107000CC038093CB038BEC93E00E94DE07DDCFA3
:101080001092CA0360E082E090E00E947110E1CF0C
:1010900087E10E94C103019719F08EEA92E0E0CF48
:1010A00088E10E94C103892B19F088EB92E0D8CF28
:1010B00089E10E94C103019719F082EC92E0D0CF40
:1010C0008AE10E94C103892B19F08CEC92E0C8CF11
:1010D0008BE10E94C103892B19F086ED92E0C0CF0D
:1010E0008CE10E94C103019719F080EE92E0B8CF25
:1010F0008DE10E94C103892B19F08AEE92E0B0CFF6
:101100008EE10E94C103892B19F084EF92E0A8CFF1
:101110008FE10E94C103019719F08EEF92E0A0CFFA
:1011200080E20E94C103892B19F088E093E098CFF8
:1011300081E20E94C103019709F058C050E1509329
:10114000CD038FE08093CE0345E04093CF0336E09C
:101150003093D00327E02093D10394E09093D203FF
:1011600081E08093D30362E06093D40363E06093F3
:10117000D5031092D6036BE06093D7036CE06093C5
:10118000D8036DE06093D9036AE06093DA0369E005
:101190006093DB0368E06093DC035093DD034093CE
:1011A000DE033093DF032093E0039093E10395E1A6
:1011B0009093EF032FEF3FEF309301022093000253
:1011C0001092F0038093F1038093F20361E08BE0CF
:1011D0000E94EA0360E08CE00E94EA0360E08DE098
:1011E0000E94EA0388EF93E00C941F0382E193E0EE
:1011F00037CFFC0180819181009711F00C94E611AA
:101200000895FB0144815581FC0124813581241717
:10121000350778F080819181009759F0FB0160815A
:1012200071816115710529F00E94691321E0892BF4
:1012300009F020E0822F0895FC0124813581232BC1
:1012400039F421E0FB018081882349F020E007C0C8
:10125000808191810E94591321E0892BB9F7822F57
:1012600008950F931F93CF93DF93EC0188819981A9
:10127000009759F02A813B812617370730F081E02B
:10128000DF91CF911F910F9108958B016F5F7F4F79
:101290000E946F12009759F0998388831B830A83F9
:1012A0002C813D81232B59F7FC011082E8CF80E08F
:1012B000E7CFEF92FF920F931F93CF93DF93EC0151
:1012C0007B018A01BA010E9431092881398181118B
:1012D00014C02115310519F0C9010E94E6111982C7
:1012E00018821D821C821B821A82CE01DF91CF914F
:1012F0001F910F91FF90EF9008951D830C83B7010C
:10130000C9010E946213F1CFAF92BF92CF92DF92D8
:10131000EF92FF920F931F93CF93DF93EC017B012A
:101320006A0185E0A82EB12C4530510520F45A0100
:1013300095E0C92ED12C198218821B821A821D8237
:101340001C8250E040E06EE372E0CE010E94590939
:10135000D70114960D911C91A016B10628F5C01660
:10136000D10608F48601D701ED91FC911197E00FA9
:10137000F11FD08010826D917C916A0D7B1D6115EB
:101380007105F1F0FB0101900020E9F73197AF0101
:10139000461B570BCE010E945909F70180819181AC
:1013A000080F191FD801DC92CE01DF91CF911F9158
:1013B0000F91FF90EF90DF90CF90BF90AF90089586
:1013C00088819981009711F00E94E6111982188294
:1013D0001D821C821B821A82E0CFFC0111821082C6
:1013E0001382128215821482FB0101900020E9F71A
:1013F0003197AF01461B570B0C9459098F929F925E
:10140000AF92BF92FF920F931F93CF93DF93CDB70D
:10141000DEB72E970FB6F894DEBF0FBECDBFFF2408
:10142000F39483EF93E00E949A02892B09F463C13D
:1014300083EF93E00E9478028D3009F038C118865E
:101440001F821A8619861C861B86609190047091F3
:1014500091046115710541F04091940450919504F7
:10146000CE0107960E9459096CE173E0CE01079600
:101470000E941C09882329F086EE91E00E941F0338
:1014800025C061E273E0CE0107960E941C09882303
:1014900099F00E946E04F092F20361E08BE00E94EA
:1014A000EA0360E08CE00E94EA0360E08DE00E94C5
:1014B000EA0388EF93E0E2CF66E273E0CE0107969D
:1014C0000E941C09882379F00E941408CE01079617
:1014D0000E94F90850E040E06EE372E080E994E099
:1014E0000E9459099ECF6AE273E0CE0107960E94DE
:1014F0001C09882319F00E94A604E8CF60E373E07A
:10150000CE0107960E941C09882319F0F092F2037D
:10151000DDCF67E373E0CE0107960E941C098823A4
:1015200029F00E9401080E94CC07D0CF6CE373E041
:10153000CE0101960E94ED09BE016F5F7F4FCE0183
:1015400007960E940109182FCE0101960E94F90802
:101550001123F1F04B855C85BE01695F7F4FCE01A1
:1015600001960E94840989819A81009769F00E94FE
:101570006F0F7E876D87CE0101960E94F908CE011C
:101580000D960E94DE07CDCF60E070E0CB01F1CF79
:1015900062E473E0CE0107960E941C09882329F0BB
:1015A0008091ED039091EE03BECF67E473E0CE012E
:1015B00001960E94ED09BE016F5F7F4FCE01079635
:1015C0000E940109182FCE0101960E94F9081123EB
:1015D000E9F04B855C85BE01695F7F4FCE010196C6
:1015E0000E94840989819A81812C912C5401009751
:1015F00019F00E946F0F4B019092EE038092ED0361
:10160000CE0101960E94F908C4018DCF6DE473E00C
:10161000CE0107960E941C09882381F082E090E0A9
:101620000E94FF07682F70E090E080E04AE00E948F
:1016300088078CE392E00E94D10448CF62E573E012
:10164000CE0101960E94ED09BE016F5F7F4FCE0172
:1016500007960E940109182FCE0101960E94F908F1
:1016600081EC91E0112309F409CF4B855C85BE0123
:10167000695F7F4FCE0101960E94840989819A811A
:1016800010E0009719F00E946F0F162FCE010196FF
:101690000E94F90882E090E00E946910181709F48E
:1016A000BDCF612F82E090E00E947110B7CF898397
:1016B0001A8200919404109195040F5F1F4FB80196
:1016C00080E994E00E943109882309F4AACE209190
:1016D0009004309191048091940490919504BE01FE
:1016E0006F5F7F4F820F931F0E94621310939504C8
:1016F0000093940496CE2E960FB6F894DEBF0FBEDC
:10170000CDBFDF91CF911F910F91FF90BF90AF9010
:101710009F908F9008950E94A60281110E94FE0959
:1017200080E090E0892B49F080E090E0892B29F05F
:101730000E94000081110E94000080E090E0892B4F
:1017400049F080E090E0892B29F00E94000081118F
:101750000E94000080E090E0892B49F080E090E05A
:10176000892B29F00E94000081110C94000008953B
:101770001F920F920FB60F9211240BB60F922F9358
:101780003F934F935F936F937F938F939F93AF9309
:10179000BF93EF93FF9383EF93E00E94B002FF911A
:1017A000EF91BF91AF919F918F917F916F915F91D9
:1017B0004F913F912F910F900BBE0F900FBE0F9046
:1017C0001F9018951F920F920FB60F9211240BB60F
:1017D0000F922F938F939F93EF93FF93E0910304C6
:1017E000F09104048081E0910904F0910A0482FDE3
:1017F0001DC0908180910C048F5F8F7320910D0428
:10180000821741F0E0910C04F0E0ED50FC4F958F11
:1018100080930C04FF91EF919F918F912F910F90E6
:101820000BBE0F900FBE0F901F9018958081F2CFC6
:101830001F920F920FB60F9211242F933F938F9305
:101840009F93AF93BF938091BE039091BF03A091EC
:10185000C003B091C1033091BD0323E0230F2D37A6
:1018600058F50196A11DB11D2093BD038093BE03C1
:101870009093BF03A093C003B093C1038091C203B0
:101880009091C303A091C403B091C5030196A11D1B
:10189000B11D8093C2039093C303A093C403B0937C
:1018A000C503BF91AF919F918F913F912F910F9061
:1018B0000FBE0F901F90189526E8230F0296A11DCA
:1018C000B11DD2CF8F929F92AF92BF92CF92DF92F3
:1018D000EF92FF92CF93DF93E3EFF3E01382128254
:1018E00088EE93E0A0E0B0E084839583A683B7837D
:1018F0008EE292E09183808385EC90E095878487E7
:1019000084EC90E09787868780EC90E0918B808BC9
:1019100081EC90E0938B828B82EC90E0958B848BB2
:1019200086EC90E0978B868B118E128E138E148E20
:10193000C0EAD4E080ED882E87E0982EA12CB12C4F
:101940008E829F82A886B98684E3888385E3898313
:1019500096E6C92EDC2C96EEE92E9FE3F92ECA827C
:10196000DB82EC82FD8261E084E30E94180461E086
:1019700085E30E94180420E030E044EB53E46A81E0
:101980007B818C819D810E947F1020E030E040E7C8
:1019900052E40E94AB0F9B01AC0160E070E08CE868
:1019A00093E40E947F109B01AC0160E070E080E84E
:1019B0009FE30E947F1020E034E244E759E40E9454
:1019C000AB0F0E94F1106E837F8388879987C6E9E9
:1019D000D4E08E829F82A886B98681E3888382E3E1
:1019E0008983CA82DB82EC82FD8261E081E30E940E
:1019F000180461E082E30E94180420E030E044EB28
:101A000053E46A817B818C819D810E947F1020E05C
:101A100030E040E752E40E94AB0F9B01AC0160E074
:101A200070E08CE893E40E947F109B01AC0160E0C1
:101A300070E080E89FE30E947F1020E034E244E7FA
:101A400059E40E94AB0F0E94F1106E837F83888758
:101A500099876EE372E080E994E0DF91CF91FF9087
:101A6000EF90DF90CF90BF90AF909F908F900C94AD
:101A7000ED09789484B5826084BD84B5816084BDAD
:101A800085B5826085BD85B5816085BD80916E001C
:101A9000816080936E00109281008091810082604D
:101AA000809381008091810081608093810080918A
:101AB00080008160809380008091B1008460809379
:101AC000B1008091B00081608093B000809191005E
:101AD0008260809391008091910081608093910059
:101AE000809190008160809390008091A10082603D
:101AF0008093A1008091A10081608093A1008091DA
:101B0000A00081608093A000809121018260809379
:101B10002101809121018160809321018091200128
:101B200081608093200180917A00846080937A00A4
:101B300080917A00826080937A0080917A0081603F
:101B400080937A0080917A00806880937A00109266
:101B5000C100E0910304F091040482E08083E091ED
:101B6000FF03F09100041082E0910104F09102045F
:101B700080E1808310920B04E0910704F091080447
:101B800086E08083E0910504F09106048081806105
:101B90008083E0910504F091060480818860808351
:101BA000E0910504F0910604808180688083E091D3
:101BB0000504F091060480818F7D80830E94490492
:101BC0004B015C0194E6C92ED12CE12CF12C0E9432
:101BD0004904681979098A099B09683E734081059F
:101BE0009105A8F321E0C21AD108E108F10888EEB6
:101BF000880E83E0981EA11CB11CC114D104E1041D
:101C0000F10429F788E593E00E94DE0460E086E1B4
:101C10000E94180460E087E10E94180460E088E1F7
:101C20000E94180460E089E10E94180460E08AE1E3
:101C30000E94180460E08BE10E94180460E08CE1CF
:101C40000E94180460E08DE10E94180460E08EE1BB
:101C50000E94180460E08FE10E94180460E080E2B6
:101C60000E94180460E081E20E94180460E082E2B1
:101C70000E94180460E083E20E94180461E08CE294
:101C80000E94180461E08BE20E94180461E08FE278
:101C90000E94180461E08EE20E94180460E082E075
:101CA0000E94180460E083E00E94180460E084E071
:101CB0000E94180460E085E00E94180461E08BE057
:101CC0000E94180461E08CE00E94180461E08DE03D
:101CD0000E941804C1E082E00E94C103019731F420
:101CE0008091C903811102C0C093C90382E00E94A0
:101CF000C103892BD1F48091C9038823B1F00E94DC
:101D00006E04C093F20361E08BE00E94EA0360E09E
:101D10008CE00E94EA0360E08DE00E94EA0388EF15
:101D200093E00E941F031092C90383E00E94C10345
:101D3000019731F48091C803811102C0C093C80398
:101D400083E00E94C103892B41F48091C80388235A
:101D500021F00E9414081092C80384E00E94C1037D
:101D6000019731F48091C703811102C0C093C7036A
:101D700084E00E94C103892B41F48091C70388232A
:101D800021F00E94A6041092C70385E00E94C103BF
:101D9000019731F48091C603811102C0C093C6033C
:101DA00085E00E94C103892B41F48091C6038823FA
:101DB00021F0C093F2031092C6038091F2038130A8
:101DC000B9F48091F103811131C0E091F003809169
:101DD000EF03E81780F4F0E0E353FC4FE081F0E01C
:101DE000EE0FFF1FE85FFD4F0190F081E02D199588
:101DF0000E948B0B70CF1092F2031092EE031092A0
:101E0000ED0360E08BE00E94EA0361E08CE00E9459
:101E1000EA0360E08DE00E94EA0383E094E00E9420
:101E20001F0384E693E00E94DE04E2CF813001F7D5
:101E3000E091F0038091EF03E81768F28091ED03E1
:101E40009091EE0301969093EE038093ED038BE85F
:101E500093E00E94D1046091ED037091EE0390E055
:101E600080E04AE00E94880786E993E00E94D1045E
:101E70008091CB039091CC030E94CC078091CA0340
:101E8000823011F40E94A6042091ED033091EE03FC
:101E90008091CB039091CC032817390718F4109246
:101EA000F003A6CF1092F2031092EE031092ED030E
:101EB00060E08BE00E94EA0361E08CE00E94EA03AC
:101EC00060E08DE00E94EA0383E094E00E941F033B
:101ED0008BE993E0A8CF80E994E00C94F9081F9374
:101EE000FC0199278827BC01E89411911032E9F38D
:101EF000193010F01E30C8F31B3251F01D3249F476
:101F0000689406C00E94960F610F711D811D911D7E
:101F1000119110531A30B0F33EF49095809570955E
:101F200061957F4F8F4F9F4F1F910895592F482FD5
:101F3000372F262F660F771F881F991F660F771F71
:101F4000881F991F620F731F841F951F660F771FCD
:101F5000881F991F08950E94BE0F0C942F100E9495
:101F6000211038F00E94281020F0952311F00C94D5
:101F700018100C941E1011240C9463100E94401031
:101F800070F3959FC1F3950F50E0551F629FF001CC
:101F9000729FBB27F00DB11D639FAA27F00DB11DE5
:101FA000AA1F649F6627B00DA11D661F829F22276E
:101FB000B00DA11D621F739FB00DA11D621F839FF5
:101FC000A00D611D221F749F3327A00D611D231FCB
:101FD000849F600D211D822F762F6A2F11249F5719
:101FE00050409AF0F1F088234AF0EE0FFF1FBB1F1C
:101FF000661F771F881F91505040A9F79E3F5105DB
:1020000080F00C9418100C9463105F3FE4F3983E3A
:10201000D4F3869577956795B795F795E7959F5F84
:10202000C1F7FE2B880F911D9695879597F9089516
:1020300097F99F6780E870E060E008959FEF80EC7B
:10204000089500240A94161617061806090608951E
:1020500000240A9412161306140605060895092E84
:102060000394000C11F4882352F0BB0F40F4BF2BF3
:1020700011F460FF04C06F5F7F4F8F4F9F4F089533
:1020800057FD9058440F551F59F05F3F71F0479529
:10209000880F97FB991F61F09F3F79F0879508950E
:1020A000121613061406551FF2CF4695F1DF08C02D
:1020B000161617061806991FF1CF8695710561054A
:1020C00008940895E894BB2766277727CB0197F9F2
:1020D0000895F999FECF92BD81BDF89A992780B5F0
:1020E0000895262FF999FECF1FBA92BD81BD20BD5C
:1020F0000FB6F894FA9AF99A0FBE019608950E94C5
:1021000093100C942F100E94281058F00E94211058
:1021100040F029F45F3F29F00C94181051110C94F1
:1021200063100C941E100E94401068F39923B1F3C1
:10213000552391F3951B550BBB27AA2762177307ED
:10214000840738F09F5F5F4F220F331F441FAA1F81
:10215000A9F335D00E2E3AF0E0E832D0915050403D
:10216000E695001CCAF72BD0FE2F29D0660F771FEB
:10217000881FBB1F261737074807AB07B0E809F0D1
:10218000BB0B802DBF01FF2793585F4F3AF09E3F56
:10219000510578F00C9418100C9463105F3FE4F331
:1021A000983ED4F3869577956795B795F7959F5F99
:1021B000C9F7880F911D9695879597F90895E1E0E5
:1021C000660F771F881FBB1F621773078407BA0744
:1021D00020F0621B730B840BBA0BEE1F88F7E0959F
:1021E00008950E94481088F09F5798F0B92F9927BA
:1021F000B751B0F0E1F0660F771F881F991F1AF0F2
:10220000BA95C9F714C0B13091F00E946210B1E0E4
:1022100008950C946210672F782F8827B85F39F0E3
:10222000B93FCCF3869577956795B395D9F73EF48A
:1022300090958095709561957F4F8F4F9F4F089532
:10224000A1E21A2EAA1BBB1BFD010DC0AA1FBB1FBA
:10225000EE1FFF1FA217B307E407F50720F0A21B2C
:10226000B30BE40BF50B661F771F881F991F1A9499
:1022700069F760957095809590959B01AC01BD01C3
:10228000CF010895EE0FFF1F881F8BBF0790F691B7
:10229000E02D19940F931F93CF93DF938230910514
:1022A00010F482E090E0E091AC04F091AD0430E0F5
:1022B00020E0B0E0A0E0309799F42115310509F451
:1022C0004AC0281B390B24303105D8F58A819B81FF
:1022D0006115710589F1FB0193838283FE0111C0B1
:1022E000408151810281138148175907E0F0481756
:1022F000590799F4109761F012960C931297139660
:102300001C933296CF01DF91CF911F910F910895C9
:102310000093AC041093AD04F4CF2115310551F0B6
:102320004217530738F0A901DB019A01BD01DF0113
:10233000F801C1CFEF01F9CF9093AD048093AC04C5
:10234000CDCFFE01E20FF31F81939193225031090B
:1023500039832883D7CF2091AA043091AB04232B53
:1023600041F420910402309105023093AB04209394
:10237000AA0420910202309103022115310541F493
:102380002DB73EB74091060250910702241B350B32
:10239000E091AA04F091AB04E217F307A0F42E1B1E
:1023A0003F0B2817390778F0AC014E5F5F4F2417B9
:1023B000350748F04E0F5F1F5093AB044093AA04BB
:1023C000819391939FCFF0E0E0E09CCFCF93DF9398
:1023D0000097E9F0FC01329713821282A091AC04BD
:1023E000B091AD04ED0130E020E01097A1F4208120
:1023F0003181820F931F2091AA043091AB042817DA
:10240000390709F061C0F093AB04E093AA04DF91AF
:10241000CF910895EA01CE17DF07E8F54A815B8185
:102420009E0141155105B1F7E901FB83EA8349910A
:102430005991C40FD51FEC17FD0761F4808191817C
:102440000296840F951FE901998388838281938185
:102450009B838A83F0E0E0E012968D919C91139724
:102460000097B9F52D913C911197CD010296820FFD
:10247000931F2091AA043091AB042817390739F62D
:10248000309751F51092AD041092AC04B093AB04A8
:10249000A093AA04BCCFD383C28340815181840F0F
:1024A000951FC817D90761F44E5F5F4F88819981E6
:1024B000480F591F518340838A819B819383828374
:1024C0002115310509F0B0CFF093AD04E093AC04D1
:1024D0009ECFFD01DC01C0CF13821282D7CF4F9275
:1024E0005F926F927F928F929F92AF92BF92CF92A4
:1024F000DF92EF92FF920F931F93CF93DF938C01A4
:10250000009799F4CB01DF91CF911F910F91FF902C
:10251000EF90DF90CF90BF90AF909F908F907F9083
:102520006F905F904F900C944A11FC01E60FF71FDB
:102530009C0122503109E217F30708F4AEC0D9011B
:10254000CD91DC911197C617D70720F1C530D10581
:1025500078F0CE0104978617970750F0C61BD70B6B
:102560002297C193D1936D937C93CF010E94E61182
:10257000C801DF91CF911F910F91FF90EF90DF90F5
:10258000CF90BF90AF909F908F907F906F905F9013
:102590004F9008955B01AC1ABD0A4C018C0E9D1E34
:1025A000A091AC04B091AD04512C412CF12CE12C44
:1025B000109731F58091AA049091AB048815990584
:1025C00009F05CC04616570608F058C08091020218
:1025D00090910302009741F48DB79EB74091060297
:1025E00050910702841B950BE817F90708F055C0B6
:1025F000F093AB04E093AA04F90171836083B8CF30
:102600008D919C91119712966C90129713967C90D5
:102610001397A815B90559F56C0142E0C40ED11CF9
:10262000CA14DB0420F1AC014A195B09DA011296E5
:10263000159780F06282738251834083D9016D9334
:102640007C93E114F10471F0D7011396FC93EE939F
:1026500012978ECF22968C0F9D1FF9019183808354
:10266000F301EFCFF093AD04E093AC0481CF4816B3
:10267000590608F42C017D01D3019ACFCB010E94A9
:102680004A117C01009749F0AE01B8010E94501335
:10269000C8010E94E61187016BCF10E000E068CF0F
:1026A000FB01DC0102C001900D9241505040D8F76F
:1026B0000895FB01DC018D91019080190110D9F37F
:1026C000990B0895FB01DC0101900D920020E1F7C8
:1026D0000895FB01DC014150504030F08D91019094
:1026E000801919F40020B9F7881B990B089512E09E
:1026F000C8E0D2E000E006C0802FFE010E94421137
:102700002196011DC930D10780E00807A9F7F89488
:02271000FFCFF9
:10271200FFFF0000AE048000640740071707F806B9
:10272200D406B006870668063F061606F605D605E5
:10273200AD058E0565054205EC0400000000D202DD
:102742003C0269023A039A0278028C020D0A005393
:102752004D414E00524F4C4C204E4F5420414C495B
:10276200474E454400534D414D005346525300538A
:1027720046524D0053464C4F0053464C430053467D
:10278200554F00534655430053504248440053505E
:102792004248450053504246005350424200535073
:1027A200414844005350414845005350414600536C
:1027B200504142004D4141206E6F742031004D4125
:1027C20042206E6F74203100504146206E6F74209B
:1027D2003000504142206E6F742031005041482039
:1027E2006E6F74203000504246206E6F74203000AD
:1027F200504242206E6F74203100504248206E6F6A
:1028020074203000464C4F206E6F74203000464CCE
:1028120043206E6F7420310046554F206E6F742036
:102822003000465543206E6F7420310068656C702D
:1028320000696E69740072756E007061757365006F
:10284200726573756D65006578746D006578746D79
:102852003D006578746300657874633D0065786D4A
:102862006F0065786D6F3D00496E697469616C69CE
:102872007A656400496E697469616C20636F6E6485
:102882006974696F6E732073657175656E63652017
:10289200636F6D706C657465642E00436F6D706C50
:1028A200657465642000206F6620004D61696E20AA
:1028B20070726F6772616D2073657175656E6365A5
:0C28C2002066696E69736865642E000072
:00000001FF
