:020000040000FA
:100000000C9409020C943A020C943A020C943A02B1
:100010000C943A020C943A020C943A020C943A0270
:100020000C943A020C943A020C943A020C943A0260
:100030000C943A020C943A020C943A020C943A0250
:100040000C943A020C943A020C943A020C943A0240
:100050000C943A020C943A020C943A020C94180C48
:100060000C943A020C94E20B0C94B80B0C943A02E8
:100070000C943A020C943A020C943A020C943A0210
:100080000C943A020C943A020C943A020C943A0200
:100090000C943A020C943A020C943A020C943A02F0
:1000A0000C943A020C943A020C943A020C943A02E0
:1000B0000C943A020C943A020C943A020C943A02D0
:1000C0000C943A020C943A020C943A020C943A02C0
:1000D0000C943A020C943A020C943A020C943A02B0
:1000E0000C943A020C9468060C9478020C943A032F
:1000F0000C94AD050C9487060C9442050C94F605FF
:100100000C9417070C94AF030C94BD030C943C02A1
:100110000C946B0F0C9497030C94F8060C94B90391
:100120000C9416060C9469020C94A5030C94EC0430
:100130000C9493030C949A020C943F060C9464075D
:100140000C9486030C9482030C949D030C94780306
:100150000C94B0060C947E030C9465050C94400737
:100160000C948D030C94A1030C94D4060C948E056E
:100170000C948A030C94B3030C94B8030C94D2022D
:100180000C94620C0C94AB030C94D6050C948C026A
:10019000457865637574696F6E2063616E63656C25
:1001A0006C656420696E697420636F6E646974693C
:1001B0006F6E73206E6F74206D617463682E0A0D0C
:1001C00000556E6B6E6F776E20636F6D6D616E6440
:1001D0002E205573652068656C7020636F6D6D61AE
:1001E0006E642E0A0D000D0A68656C7020202020B8
:1001F000202020202020203A2053686F777320751C
:100200007361626C6520636F6D6D616E64732E0A3D
:100210000D696E69742020202020202020202020BD
:100220003A2053657473206D616368696E6520655B
:100230006C656D656E747320746F20696E69746986
:10024000616C20636F6E646974696F6E732E0A0D42
:1002500072756E20202020202020202020202020A9
:100260003A2052756E20746865206D61696E207049
:10027000726F6772616D2E0A0D0A0D70617573657C
:100280002020202020202020203A205061757365F6
:1002900020746865206D61696E2070726F6772618D
:1002A0006D2E0A0D726573756D652020202020204B
:1002B000203A20526573756D6520746865206D6104
:1002C000696E2070726F6772616D2E0A0D000000FA
:1002D0002100240027002A002D00300033000101F6
:1002E0000000040107010A01000022002500280087
:1002F0002B002E003100340002010000050108012E
:100300000B01000020002300260029002C002F00F4
:100310003200000100000301060109010505050581
:10032000070508080808020202020A0A080804046D
:10033000040401010101010101010303030303039B
:100340000303040707070C0C0C0C0C0C0C0C02022A
:10035000020206060606060606060B0B0B0B0B0B27
:100360000B0B0102102020080810204010204080B4
:100370000201020108040201010204081020408069
:1003800080402010080402018004020180402010F7
:100390000804020108040201010204081020408040
:1003A000010204081020408000000A0B02090C0D15
:1003B0000E08070304010000000000000000000018
:1003C000000000000000000000000000000000002D
:1003D00000000000121110000000000000000000EA
:1003E000000000000000000000000000000050615C
:1003F000757365642E0A0D0052756E6E696E672EF8
:100400000A0D0053746F707065642E0A0D00620C43
:100410006B0F11241FBECFEFD1E2DEBFCDBF00E0D6
:100420000CBF24E0ACEBB3E001C01D92AE3AB207C2
:10043000E1F713E0A0E0B2E0E2E1F7E200E00BBF99
:1004400002C007900D92AC3BB107D9F712E0C8E0AB
:10045000D2E000E006C021970109802FFE010E9432
:100460004211C730D10780E00807A9F70E94390D73
:100470000C9477130C940000AF92BF92CF92DF924E
:10048000EF92FF920F931F93CF93DF936C017B0149
:100490008B01040F151FEB015E01AE18BF08C017DA
:1004A000D10759F06991D601ED91FC910190F0814D
:1004B000E02DC6011995892B79F7C501DF91CF9100
:1004C0001F910F91FF90EF90DF90CF90BF90AF9072
:1004D0000895FC01538D448D252F30E0842F90E04A
:1004E000821B930B541710F0CF960895019708952F
:1004F000FC01918D828D981761F0A28DAE0FBF2FF8
:10050000B11D5D968C91928D9F5F9F73928F90E04D
:1005100008958FEF9FEF0895FC01918D828D9817BC
:1005200031F0828DE80FF11D858D90E008958FEFF9
:100530009FEF0895FC01918D228D892F90E0805CC2
:100540009F4F821B91098F739927089583EF93E042
:100550000E949A0221E0892B09F420E0822F08955D
:10056000FC01A48DA80FB92FB11DA35ABF4F2C9128
:10057000848D90E001968F739927848FA689B7891F
:100580002C93A089B1898C91837080648C93938D16
:10059000848D981306C00288F389E02D80818F7DB9
:1005A00080830895EF92FF920F931F93CF93DF9371
:1005B000EC0181E0888F9B8D8C8D98131AC0E8899F
:1005C000F989808185FF15C09FB7F894EE89FF896E
:1005D0006083E889F98980818370806480839FBF0C
:1005E00081E090E0DF91CF911F910F91FF90EF900C
:1005F0000895F62E0B8D10E00F5F1F4F0F7311271C
:10060000E02E8C8D8E110CC00FB607FCFACFE88956
:10061000F989808185FFF5CFCE010E94B002F1CF2C
:10062000EB8DEC0FFD2FF11DE35AFF4FF0829FB7CA
:10063000F8940B8FEA89FB8980818062CFCF0F937A
:100640001F93CF93DF938C01D0E0C0E0F801EC0F53
:10065000FD1F6491662341F083EF93E00E94D20274
:10066000892B11F02196F2CFCE01DF91CF911F910E
:100670000F910895CF93DF93EC01888D8823B9F013
:10068000AA89BB89E889F9898C9185FD03C080819D
:1006900086FD0DC00FB607FCF7CF8C9185FFF2CF1A
:1006A000808185FFEDCFCE010E94B002E9CFDF91BE
:1006B000CF9108958150823108F05AC0E82FF0E0C0
:1006C0008827EA59FC4F8F4F0C94421186038A0306
:1006D00078037E038203B8038D03930397039D037E
:1006E000A103A503AB03AF03B803B303B903BD0371
:1006F000809180008F7780938000089580918000A2
:100700008F7DF9CF80918000877FF5CF84B58F777B
:1007100084BD089584B58F7DFBCF8091B0008F7725
:100720008093B00008958091B0008F7DF9CF8091C3
:1007300090008F77809390000895809190008F7D36
:10074000F9CF80919000877FF5CF8091A0008F77BF
:100750008093A00008958091A0008F7DF9CF8091B3
:10076000A000877FF5CF809120018F7780932001B3
:100770000895809120018F7DF9CF80912001877F9E
:10078000F5CFCF93DF93282F30E0F901E855FC4FE8
:100790008491F901EE59FC4FD491F901E45EFC4FCC
:1007A000C491CC23A1F081110E945A03EC2FF0E0F8
:1007B000EE0FFF1FEE5FFC4FA591B491EC91ED237E
:1007C00081E090E009F480E0DF91CF91089580E02E
:1007D00090E0FACF1F93CF93DF93282F30E0F901F9
:1007E000E855FC4F8491F901EE59FC4FD491F90181
:1007F000E45EFC4FC491CC23A9F0162F81110E9416
:100800005A03EC2FF0E0EE0FFF1FE851FD4FA591CA
:10081000B4918FB7F894EC91111108C0D095DE23F4
:10082000DC938FBFDF91CF911F910895DE2BF8CF1E
:10083000CF93DF9390E0FC01EE59FC4F2491845E4E
:100840009C4FFC0184918823D1F090E0880F991F80
:10085000FC01E253FD4FA591B491FC01E851FD4F1D
:10086000C591D49161110EC09FB7F8948C91E22F7D
:10087000E0958E238C932881E223E8839FBFDF914C
:10088000CF9108958FB7F894EC91E22BEC938FBF42
:10089000F6CF3FB7F8948091C2039091C303A09123
:1008A000C403B091C50326B5A89B05C02F3F19F01E
:1008B0000196A11DB11D3FBFBA2FA92F982F8827E0
:1008C000BC01CD01620F711D811D911D42E0660FBB
:1008D000771F881F991F4A95D1F70895EDECF3E033
:1008E000108284E081838AE0828388E0838383E0CE
:1008F000848387E085839EE096838093EF038FEF68
:100900009FEF90930102809300021092F0031092E7
:10091000F1030895CF93DF93EC0188810E94C10316
:1009200061E0892B09F060E088810E94EA038E81F2
:100930009F818230910538F0880F991F880F991F89
:1009400005970197F1F7DF91CF9108951092F20387
:1009500060E08BE00E94EA0361E08CE00E94EA0321
:1009600060E08DE00E94EA038EEE93E00C941F039A
:100970008091CA03813011F40C94A604089560E0BC
:100980008FE20E94EA038091F0038F5F8093F0036F
:100990000C94B8048091F0038F5F8093F0030C9463
:1009A000B804FC0101900020E9F73197AF01481B22
:1009B000590BBC0183EF93E00C943C02CF93DF937F
:1009C0000E94D104EC018CE392E00E94D1048C0FD0
:1009D0009D1FDF91CF9108952091F0038091000237
:1009E000909101022817190699F08FE392E00E9476
:1009F000DE0461E08CE20E94EA0361E08BE20E9487
:100A0000EA038091F00390E090930102809300024A
:100A100086E10E94C103892B19F481E08093BC0315
:100A200086E10E94C103019761F58091BC03882390
:100A300041F186E10E94C103892B91F41092F203E7
:100A400060E08BE00E94EA0360E08CE00E94EA0331
:100A500061E08DE00E94EA0384E492E00C94D1040A
:100A600060E08CE20E94EA0360E08BE20E94EA030D
:100A70001092BC038091F0038F5F8093F0030C947D
:100A8000B80408952091F003809100029091010232
:100A90002817190699F085E592E00E94DE0460E0CF
:100AA0008CE20E94EA0360E08BE20E94EA038091FC
:100AB000F00390E090930102809300028091F00394
:100AC0008F5F8093F0030C94B8042091F003809121
:100AD0000002909101022817190679F085E592E04D
:100AE0000E94DE0461E08CE20E94EA038091F00340
:100AF00090E0909301028093000286E10E94C1037E
:100B0000019759F460E08CE20E94EA038091F003BF
:100B10008F5F8093F0030C94B80408952091F00344
:100B200080910002909101022817190679F08AE558
:100B300092E00E94DE0460E08DE20E94EA03809170
:100B4000F00390E090930102809300028091F00303
:100B50008F5F8093F0030C94B8042091F003809190
:100B60000002909101022817190679F08FE592E0B2
:100B70000E94DE0461E08DE20E94EA038091F003AE
:100B800090E0909301028093000282E20E94C103F0
:100B9000019759F460E08DE20E94EA038091F0032E
:100BA0008F5F8093F0030C94B80408952091F003B4
:100BB00080910002909101022817190679F084E6CD
:100BC00092E00E94DE0461E08FE20E94EA038091DD
:100BD000F00390E090930102809300028EE10E9466
:100BE000C103019711F40C94BF0408952091F00300
:100BF00080910002909101022817190679F089E688
:100C000092E00E94DE0461E08FE20E94EA0380919C
:100C1000F00390E090930102809300028FE10E9424
:100C2000C103019711F40C94BF0408952091F003BF
:100C300080910002909101022817190679F08EE642
:100C400092E00E94DE0461E08EE20E94EA0380915D
:100C5000F00390E0909301028093000280E20E94F2
:100C6000C103019721F460E08EE20E94EA0383E26F
:100C70000E94C103019711F40C94CA0408952091B5
:100C8000F00380910002909101022817190679F073
:100C900083E792E00E94DE0461E08EE20E94EA03B4
:100CA0008091F00390E0909301028093000281E232
:100CB0000E94C103019759F460E08EE20E94EA03AA
:100CC0008091F0038F5F8093F0030C94B804089533
:100CD0002091F003809100029091010228171906DB
:100CE00079F088E792E00E94DE0460E080E30E94F1
:100CF000EA038091F00390E0909301028093000258
:100D00008091F0038F5F8093F0030C94B8042091DE
:100D1000F00380910002909101022817190679F0E2
:100D20008EE792E00E94DE0461E080E30E94EA0325
:100D30008091F00390E090930102809300028DE196
:100D40000E94C103019759F460E080E30E94EA0326
:100D50008091F0038F5F8093F0030C94B8040895A2
:100D60002091F0038091000290910102281719064A
:100D700081F084E892E00E94DE0461E080919704B3
:100D80000E94EA038091F00390E090930102809327
:100D900000028BE10E94C103019721F086E994E0F3
:100DA0000C948A040C94CA042091F00380910002F0
:100DB000909101022817190681F089E892E00E94BB
:100DC000DE0460E0809197040E94EA038091F003C2
:100DD00090E090930102809300028CE10E94C10395
:100DE000019721F086E994E00C948A040C94CA04DB
:100DF0002091F003809100029091010228171906BA
:100E000079F08EE892E00E94DE0460E083E30E94C5
:100E1000EA038091F00390E0909301028093000236
:100E20008091F0038F5F8093F0030C94B8042091BD
:100E3000F00380910002909101022817190679F0C1
:100E400084E992E00E94DE0461E083E30E94EA0309
:100E50008091F00390E090930102809300028AE178
:100E60000E94C103019759F460E083E30E94EA0302
:100E70008091F0038F5F8093F0030C94B804089581
:100E80002091F00380910002909101022817190629
:100E900081F08AE992E00E94DE0461E08091A10481
:100EA0000E94EA038091F00390E090930102809306
:100EB000000288E10E94C103019721F080EA94E0DA
:100EC0000C948A040C94CA042091F00380910002CF
:100ED000909101022817190681F08FE992E00E9493
:100EE000DE0460E08091A1040E94EA038091F00397
:100EF00090E0909301028093000289E10E94C10377
:100F0000019721F080EA94E00C948A040C94CA04BE
:100F10008F929F92AF92BF920F931F93CF93DF93C5
:100F2000CDB7DEB7A1970FB6F894DEBF0FBECDBF29
:100F300019A2423008F44AE08E010F5D1F4F842E43
:100F4000912CB12CA12CA50194010E942011E62F17
:100F5000B901CA01EA30F4F4E05DD801EE938D01E5
:100F6000232B242B252B79F790E080E0109719F0A4
:100F7000CD010E94D104A1960FB6F894DEBF0FBE3A
:100F8000CDBFDF91CF911F910F91BF90AF909F90F8
:100F90008F900895E95CE1CFCF93DF93BC0190E09F
:100FA00080E04AE00E948807EC018CE392E00E9416
:100FB000D1048C0F9D1FDF91CF9108951F93CF9384
:100FC000DF93EC01188190E080E00E94691018170F
:100FD00029F0612F90E080E00E947110198181E07A
:100FE00090E00E946910181729F0612F81E090E0CD
:100FF0000E947110CE01DF91CF911F9108950C9442
:101000006910CF9381E090E00E94FF07C82F90E025
:1010100080E00E94FF072C2F30E0322F2227820F22
:10102000932F911DCF9108950E9401088F3F98073B
:10103000E1F09093CC038093CB031092EE031092D7
:10104000ED0382E090E00E94FF078F3FC9F080939C
:10105000CA0386E10E94C1030197D1F084EA92E0BD
:101060000E94DE0480E991E0BFC081E090E09093AF
:10107000CC038093CB038BEC93E00E94DE07DDCFA3
:101080001092CA0360E082E090E00E947110E1CF0C
:1010900087E10E94C103019719F08EEA92E0E0CF48
:1010A00088E10E94C103892B19F088EB92E0D8CF28
:1010B00089E10E94C103019719F082EC92E0D0CF40
:1010C0008AE10E94C103892B19F08CEC92E0C8CF11
:1010D0008BE10E94C103892B19F086ED92E0C0CF0D
:1010E0008CE10E94C103019719F080EE92E0B8CF25
:1010F0008DE10E94C103892B19F08AEE92E0B0CFF6
:101100008EE10E94C103892B19F084EF92E0A8CFF1
:101110008FE10E94C103019719F08EEF92E0A0CFFA
:1011200080E20E94C103892B19F088E093E098CFF8
:1011300081E20E94C103019709F058C050E1509329
:10114000CD038FE08093CE0345E04093CF0336E09C
:101150003093D00327E02093D10394E09093D203FF
:1011600081E08093D30362E06093D40363E06093F3
:10117000D5031092D6036BE06093D7036CE06093C5
:10118000D8036DE06093D9036AE06093DA0369E005
:101190006093DB0368E06093DC035093DD034093CE
:1011A000DE033093DF032093E0039093E10395E1A6
:1011B0009093EF032FEF3FEF309301022093000253
:1011C0001092F0038093F1038093F20361E08BE0CF
:1011D0000E94EA0360E08CE00E94EA0360E08DE098
:1011E0000E94EA0388EF93E00C941F0382E193E0EE
:1011F00037CFFC0180819181009711F00C94E611AA
:101200000895FB0144815581FC0124813581241717
:10121000350778F080819181009759F0FB0160815A
:1012200071816115710529F00E94691321E0892BF4
:1012300009F020E0822F0895FC0124813581232BC1
:1012400039F421E0FB018081882349F020E007C0C8
:10125000808191810E94591321E0892BB9F7822F57
:1012600008950F931F93CF93DF93EC0188819981A9
:10127000009759F02A813B812617370730F081E02B
:10128000DF91CF911F910F9108958B016F5F7F4F79
:101290000E946F12009759F0998388831B830A83F9
:1012A0002C813D81232B59F7FC011082E8CF80E08F
:1012B000E7CFEF92FF920F931F93CF93DF93EC0151
:1012C0007B018A01BA010E9431092881398181118B
:1012D00014C02115310519F0C9010E94E6111982C7
:1012E00018821D821C821B821A82CE01DF91CF914F
:1012F0001F910F91FF90EF9008951D830C83B7010C
:10130000C9010E946213F1CFAF92BF92CF92DF92D8
:10131000EF92FF920F931F93CF93DF93EC017B012A
:101320006A0185E0A82EB12C4530510520F45A0100
:1013300095E0C92ED12C198218821B821A821D8237
:101340001C8250E040E06EE372E0CE010E94590939
:10135000D70114960D911C91A016B10628F5C01660
:10136000D10608F48601D701ED91FC911197E00FA9
:10137000F11FD08010826D917C916A0D7B1D6115EB
:101380007105F1F0FB0101900020E9F73197AF0101
:10139000461B570BCE010E945909F70180819181AC
:1013A000080F191FD801DC92CE01DF91CF911F9158
:1013B0000F91FF90EF90DF90CF90BF90AF90089586
:1013C00088819981009711F00E94E6111982188294
:1013D0001D821C821B821A82E0CFFC0111821082C6
:1013E0001382128215821482FB0101900020E9F71A
:1013F0003197AF01461B570B0C9459098F929F925E
:10140000AF92BF92FF920F931F93CF93DF93CDB70D
:10141000DEB72E970FB6F894DEBF0FBECDBFFF2408
:10142000F39483EF93E00E949A02892B09F463C13D
:1014300083EF93E00E9478028D3009F038C118865E
:101440001F821A8619861C861B86609190047091F3
:1014500091046115710541F04091940450919504F7
:10146000CE0107960E9459096CE173E0CE01079600
:101470000E941C09882329F086EE91E00E941F0338
:1014800025C061E273E0CE0107960E941C09882303
:1014900099F00E946E04F092F20361E08BE00E94EA
:1014A000EA0360E08CE00E94EA0360E08DE00E94C5
:1014B000EA0388EF93E0E2CF66E273E0CE0107969D
:1014C0000E941C09882379F00E941408CE01079617
:1014D0000E94F90850E040E06EE372E080E994E099
:1014E0000E9459099ECF6AE273E0CE0107960E94DE
:1014F0001C09882319F00E94A604E8CF60E373E07A
:10150000CE0107960E941C09882319F0F092F2037D
:10151000DDCF67E373E0CE0107960E941C098823A4
:1015200029F00E9401080E94CC07D0CF6CE373E041
:10153000CE0101960E94ED09BE016F5F7F4FCE0183
:1015400007960E940109182FCE0101960E94F90802
:101550001123F1F04B855C85BE01695F7F4FCE01A1
:1015600001960E94840989819A81009769F00E94FE
:101570006F0F7E876D87CE0101960E94F908CE011C
:101580000D960E94DE07CDCF60E070E0CB01F1CF79
:1015900062E473E0CE0107960E941C09882329F0BB
:1015A0008091ED039091EE03BECF67E473E0CE012E
:1015B00001960E94ED09BE016F5F7F4FCE01079635
:1015C0000E940109182FCE0101960E94F9081123EB
:1015D000E9F04B855C85BE01695F7F4FCE010196C6
:1015E0000E94840989819A81812C912C5401009751
:1015F00019F00E946F0F4B019092EE038092ED0361
:10160000CE0101960E94F908C4018DCF6DE473E00C
:10161000CE0107960E941C09882381F082E090E0A9
:101620000E94FF07682F70E090E080E04AE00E948F
:1016300088078CE392E00E94D10448CF62E573E012
:10164000CE0101960E94ED09BE016F5F7F4FCE0172
:1016500007960E940109182FCE0101960E94F908F1
:1016600081EC91E0112309F409CF4B855C85BE0123
:10167000695F7F4FCE0101960E94840989819A811A
:1016800010E0009719F00E946F0F162FCE010196FF
:101690000E94F90882E090E00E946910181709F48E
:1016A000BDCF612F82E090E00E947110B7CF898397
:1016B0001A8200919404109195040F5F1F4FB80196
:1016C00080E994E00E943109882309F4AACE209190
:1016D0009004309191048091940490919504BE01FE
:1016E0006F5F7F4F820F931F0E94621310939504C8
:1016F0000093940496CE2E960FB6F894DEBF0FBEDC
:10170000CDBFDF91CF911F910F91FF90BF90AF9010
:101710009F908F9008950E94A60281110E94FE0959
:1017200080E090E0892B49F080E090E0892B29F05F
:101730000E94000081110E94000080E090E0892B4F
:1017400049F080E090E0892B29F00E94000081118F
:101750000E94000080E090E0892B49F080E090E05A
:10176000892B29F00E94000081110C94000008953B
:101770001F920F920FB60F9211240BB60F922F9358
:101780003F934F935F936F937F938F939F93AF9309
:10179000BF93EF93FF9383EF93E00E94B002FF911A
:1017A000EF91BF91AF919F918F917F916F915F91D9
:1017B0004F913F912F910F900BBE0F900FBE0F9046
:1017C0001F9018951F920F920FB60F9211240BB60F
:1017D0000F922F938F939F93EF93FF93E0910304C6
:1017E000F09104048081E0910904F0910A0482FDE3
:1017F0001DC0908180910C048F5F8F7320910D0428
:10180000821741F0E0910C04F0E0ED50FC4F958F11
:1018100080930C04FF91EF919F918F912F910F90E6
:101820000BBE0F900FBE0F901F9018958081F2CFC6
:101830001F920F920FB60F9211242F933F938F9305
:101840009F93AF93BF938091BE039091BF03A091EC
:10185000C003B091C1033091BD0323E0230F2D37A6
:1018600058F50196A11DB11D2093BD038093BE03C1
:101870009093BF03A093C003B093C1038091C203B0
:101880009091C303A091C403B091C5030196A11D1B
:10189000B11D8093C2039093C303A093C403B0937C
:1018A000C503BF91AF919F918F913F912F910F9061
:1018B0000FBE0F901F90189526E8230F0296A11DCA
:1018C000B11DD2CF8F929F92AF92BF92CF92DF92F3
:1018D000EF92FF92CF93DF93E3EFF3E01382128254
:1018E00088EE93E0A0E0B0E084839583A683B7837D
:1018F0008EE292E09183808385EC90E095878487E7
:1019000084EC90E09787868780EC90E0918B808BC9
:1019100081EC90E0938B828B82EC90E0958B848BB2
:1019200086EC90E0978B868B118E128E138E148E20
:10193000C0EAD4E080ED882E87E0982EA12CB12C4F
:101940008E829F82A886B98684E3888385E3898313
:1019500096E6C92EDC2C96EEE92E9FE3F92ECA827C
:10196000DB82EC82FD8261E084E30E94180461E086
:1019700085E30E94180420E030E044EB53E46A81E0
:101980007B818C819D810E947F1020E030E040E7C8
:1019900052E40E94AB0F9B01AC0160E070E08CE868
:1019A00093E40E947F109B01AC0160E070E080E84E
:1019B0009FE30E947F1020E034E244E759E40E9454
:1019C000AB0F0E94F1106E837F8388879987C6E9E9
:1019D000D4E08E829F82A886B98681E3888382E3E1
:1019E0008983CA82DB82EC82FD8261E081E30E940E
:1019F000180461E082E30E94180420E030E044EB28
:101A000053E46A817B818C819D810E947F1020E05C
:101A100030E040E752E40E94AB0F9B01AC0160E074
:101A200070E08CE893E40E947F109B01AC0160E0C1
:101A300070E080E89FE30E947F1020E034E244E7FA
:101A400059E40E94AB0F0E94F1106E837F83888758
:101A500099876EE372E080E994E0DF91CF91FF9087
:101A6000EF90DF90CF90BF90AF909F908F900C94AD
:101A7000ED09789484B5826084BD84B5816084BDAD
:101A800085B5826085BD85B5816085BD80916E001C
:101A9000816080936E00109281008091810082604D
:101AA000809381008091810081608093810080918A
:101AB00080008160809380008091B1008460809379
:101AC000B1008091B00081608093B000809191005E
:101AD0008260809391008091910081608093910059
:101AE000809190008160809390008091A10082603D
:101AF0008093A1008091A10081608093A1008091DA
:101B0000A00081608093A000809121018260809379
:101B10002101809121018160809321018091200128
:101B200081608093200180917A00846080937A00A4
:101B300080917A00826080937A0080917A0081603F
:101B400080937A0080917A00806880937A00109266
:101B5000C100E0910304F091040482E08083E091ED
:101B6000FF03F09100041082E0910104F09102045F
:101B700080E1808310920B04E0910704F091080447
:101B800086E08083E0910504F09106048081806105
:101B90008083E0910504F091060480818860808351
:101BA000E0910504F0910604808180688083E091D3
:101BB0000504F091060480818F7D80830E94490492
:101BC0004B015C0194E6C92ED12CE12CF12C0E9432
:101BD0004904681979098A099B09683E734081059F
:101BE0009105A8F321E0C21AD108E108F10888EEB6
:101BF000880E83E0981EA11CB11CC114D104E1041D
:101C0000F10429F788E593E00E94DE0460E086E1B4
:101C10000E94180460E087E10E94180460E088E1F7
:101C20000E94180460E089E10E94180460E08AE1E3
:101C30000E94180460E08BE10E94180460E08CE1CF
:101C40000E94180460E08DE10E94180460E08EE1BB
:101C50000E94180460E08FE10E94180460E080E2B6
:101C60000E94180460E081E20E94180460E082E2B1
:101C70000E94180460E083E20E94180461E08CE294
:101C80000E94180461E08BE20E94180461E08FE278
:101C90000E94180461E08EE20E94180460E082E075
:101CA0000E94180460E083E00E94180460E084E071
:101CB0000E94180460E085E00E94180461E08BE057
:101CC0000E94180461E08CE00E94180461E08DE03D
:101CD0000E941804C1E082E00E94C103019731F420
:101CE0008091C903811102C0C093C90382E00E94A0
:101CF000C103892BD1F48091C9038823B1F00E94DC
:101D00006E04C093F20361E08BE00E94EA0360E09E
:101D10008CE00E94EA0360E08DE00E94EA0388EF15
:101D200093E00E941F031092C90383E00E94C10345
:101D3000019731F48091C803811102C0C093C80398
:101D400083E00E94C103892B41F48091C80388235A
:101D500021F00E9414081092C80384E00E94C1037D
:101D6000019731F48091C703811102C0C093C7036A
:101D700084E00E94C103892B41F48091C70388232A
:101D800021F00E94A6041092C70385E00E94C103BF
:101D9000019731F48091C603811102C0C093C6033C
:101DA00085E00E94C103892B41F48091C6038823FA
:101DB00021F0C093F2031092C6038091F2038130A8
:101DC000B9F48091F103811131C0E091F003809169
:101DD000EF03E81780F4F0E0E353FC4FE081F0E01C
:101DE000EE0FFF1FE85FFD4F0190F081E02D199588
:101DF0000E948B0B70CF1092F2031092EE031092A0
:101E0000ED0360E08BE00E94EA0361E08CE00E9459
:101E1000EA0360E08DE00E94EA0383E094E00E9420
:101E20001F0384E693E00E94DE04E2CF813001F7D5
:101E3000E091F0038091EF03E81768F28091ED03E1
:101E40009091EE0301969093EE038093ED038BE85F
:101E500093E00E94D1046091ED037091EE0390E055
:101E600080E04AE00E94880786E993E00E94D1045E
:101E70008091CB039091CC030E94CC078091CA0340
:101E8000823011F40E94A6042091ED033091EE03FC
:101E90008091CB039091CC032817390718F4109246
:101EA000F003A6CF1092F2031092EE031092ED030E
:101EB00060E08BE00E94EA0361E08CE00E94EA03AC
:101EC00060E08DE00E94EA0383E094E00E941F033B
:101ED0008BE993E0A8CF80E994E00C94F9081F9374
:101EE000FC0199278827BC01E89411911032E9F38D
:101EF000193010F01E30C8F31B3251F01D3249F476
:101F0000689406C00E94960F610F711D811D911D7E
:101F1000119110531A30B0F33EF49095809570955E
:101F200061957F4F8F4F9F4F1F910895592F482FD5
:101F3000372F262F660F771F881F991F660F771F71
:101F4000881F991F620F731F841F951F660F771FCD
:101F5000881F991F08950E94BE0F0C942F100E9495
:101F6000211038F00E94281020F0952311F00C94D5
:101F700018100C941E1011240C9463100E94401031
:101F800070F3959FC1F3950F50E0551F629FF001CC
:101F9000729FBB27F00DB11D639FAA27F00DB11DE5
:101FA000AA1F649F6627B00DA11D661F829F22276E
:101FB000B00DA11D621F739FB00DA11D621F839FF5
:101FC000A00D611D221F749F3327A00D611D231FCB
:101FD000849F600D211D822F762F6A2F11249F5719
:101FE00050409AF0F1F088234AF0EE0FFF1FBB1F1C
:101FF000661F771F881F91505040A9F79E3F5105DB
:1020000080F00C9418100C9463105F3FE4F3983E3A
:10201000D4F3869577956795B795F795E7959F5F84
:10202000C1F7FE2B880F911D9695879597F9089516
:1020300097F99F6780E870E060E008959FEF80EC7B
:10204000089500240A94161617061806090608951E
:1020500000240A9412161306140605060895092E84
:102060000394000C11F4882352F0BB0F40F4BF2BF3
:1020700011F460FF04C06F5F7F4F8F4F9F4F089533
:1020800057FD9058440F551F59F05F3F71F0479529
:10209000880F97FB991F61F09F3F79F0879508950E
:1020A000121613061406551FF2CF4695F1DF08C02D
:1020B000161617061806991FF1CF8695710561054A
:1020C00008940895E894BB2766277727CB0197F9F2
:1020D0000895F999FECF92BD81BDF89A992780B5F0
:1020E0000895262FF999FECF1FBA92BD81BD20BD5C
:1020F0000FB6F894FA9AF99A0FBE019608950E94C5
:1021000093100C942F100E94281058F00E94211058
:1021100040F029F45F3F29F00C94181051110C94F1
:1021200063100C941E100E94401068F39923B1F3C1
:10213000552391F3951B550BBB27AA2762177307ED
:10214000840738F09F5F5F4F220F331F441FAA1F81
:10215000A9F335D00E2E3AF0E0E832D0915050403D
:10216000E695001CCAF72BD0FE2F29D0660F771FEB
:10217000881FBB1F261737074807AB07B0E809F0D1
:10218000BB0B802DBF01FF2793585F4F3AF09E3F56
:10219000510578F00C9418100C9463105F3FE4F331
:1021A000983ED4F3869577956795B795F7959F5F99
:1021B000C9F7880F911D9695879597F90895E1E0E5
:1021C000660F771F881FBB1F621773078407BA0744
:1021D00020F0621B730B840BBA0BEE1F88F7E0959F
:1021E00008950E94481088F09F5798F0B92F9927BA
:1021F000B751B0F0E1F0660F771F881F991F1AF0F2
:10220000BA95C9F714C0B13091F00E946210B1E0E4
:1022100008950C946210672F782F8827B85F39F0E3
:10222000B93FCCF3869577956795B395D9F73EF48A
:1022300090958095709561957F4F8F4F9F4F089532
:10224000A1E21A2EAA1BBB1BFD010DC0AA1FBB1FBA
:10225000EE1FFF1FA217B307E407F50720F0A21B2C
:10226000B30BE40BF50B661F771F881F991F1A9499
:1022700069F760957095809590959B01AC01BD01C3
:10228000CF010895EE0FFF1F881F8BBF0790F691B7
:10229000E02D19940F931F93CF93DF938230910514
:1022A00010F482E090E0E091AC04F091AD0430E0F5
:1022B00020E0B0E0A0E0309799F42115310509F451
:1022C0004AC0281B390B24303105D8F58A819B81FF
:1022D0006115710589F1FB0193838283FE0111C0B1
:1022E000408151810281138148175907E0F0481756
:1022F000590799F4109761F012960C931297139660
:102300001C933296CF01DF91CF911F910F910895C9
:102310000093AC041093AD04F4CF2115310551F0B6
:102320004217530738F0A901DB019A01BD01DF0113
:10233000F801C1CFEF01F9CF9093AD048093AC04C5
:10234000CDCFFE01E20FF31F81939193225031090B
:1023500039832883D7CF2091AA043091AB04232B53
:1023600041F420910402309105023093AB04209394
:10237000AA0420910202309103022115310541F493
:102380002DB73EB74091060250910702241B350B32
:10239000E091AA04F091AB04E217F307A0F42E1B1E
:1023A0003F0B2817390778F0AC014E5F5F4F2417B9
:1023B000350748F04E0F5F1F5093AB044093AA04BB
:1023C000819391939FCFF0E0E0E09CCFCF93DF9398
:1023D0000097E9F0FC01329713821282A091AC04BD
:1023E000B091AD04ED0130E020E01097A1F4208120
:1023F0003181820F931F2091AA043091AB042817DA
:10240000390709F061C0F093AB04E093AA04DF91AF
:10241000CF910895EA01CE17DF07E8F54A815B8185
:102420009E0141155105B1F7E901FB83EA8349910A
:102430005991C40FD51FEC17FD0761F4808191817C
:102440000296840F951FE901998388838281938185
:102450009B838A83F0E0E0E012968D919C91139724
:102460000097B9F52D913C911197CD010296820FFD
:10247000931F2091AA043091AB042817390739F62D
:10248000309751F51092AD041092AC04B093AB04A8
:10249000A093AA04BCCFD383C28340815181840F0F
:1024A000951FC817D90761F44E5F5F4F88819981E6
:1024B000480F591F518340838A819B819383828374
:1024C0002115310509F0B0CFF093AD04E093AC04D1
:1024D0009ECFFD01DC01C0CF13821282D7CF4F9275
:1024E0005F926F927F928F929F92AF92BF92CF92A4
:1024F000DF92EF92FF920F931F93CF93DF938C01A4
:10250000009799F4CB01DF91CF911F910F91FF902C
:10251000EF90DF90CF90BF90AF909F908F907F9083
:102520006F905F904F900C944A11FC01E60FF71FDB
:102530009C0122503109E217F30708F4AEC0D9011B
:10254000CD91DC911197C617D70720F1C530D10581
:1025500078F0CE0104978617970750F0C61BD70B6B
:102560002297C193D1936D937C93CF010E94E61182
:10257000C801DF91CF911F910F91FF90EF90DF90F5
:10258000CF90BF90AF909F908F907F906F905F9013
:102590004F9008955B01AC1ABD0A4C018C0E9D1E34
:1025A000A091AC04B091AD04512C412CF12CE12C44
:1025B000109731F58091AA049091AB048815990584
:1025C00009F05CC04616570608F058C08091020218
:1025D00090910302009741F48DB79EB74091060297
:1025E00050910702841B950BE817F90708F055C0B6
:1025F000F093AB04E093AA04F90171836083B8CF30
:102600008D919C91119712966C90129713967C90D5
:102610001397A815B90559F56C0142E0C40ED11CF9
:10262000CA14DB0420F1AC014A195B09DA011296E5
:10263000159780F06282738251834083D9016D9334
:102640007C93E114F10471F0D7011396FC93EE939F
:1026500012978ECF22968C0F9D1FF9019183808354
:10266000F301EFCFF093AD04E093AC0481CF4816B3
:10267000590608F42C017D01D3019ACFCB010E94A9
:102680004A117C01009749F0AE01B8010E94501335
:10269000C8010E94E61187016BCF10E000E068CF0F
:1026A000FB01DC0102C001900D9241505040D8F76F
:1026B0000895FB01DC018D91019080190110D9F37F
:1026C000990B0895FB01DC0101900D920020E1F7C8
:1026D0000895FB01DC014150504030F08D91019094
:1026E000801919F40020B9F7881B990B089512E09E
:1026F000C8E0D2E000E006C0802FFE010E94421137
:102700002196011DC930D10780E00807A9F7F89488
:10271000FFCFFFFF0000AE048000640740071707EB
:10272000F806D406B006870668063F061606F605C4
:10273000D605AD058E0565054205EC0400000000D8
:10274000D2023C0269023A039A0278028C020D0A14
:1027500000534D414E00524F4C4C204E4F5420419F
:102760004C49474E454400534D414D00534652534A
:10277000005346524D0053464C4F0053464C4300C5
:102780005346554F0053465543005350424844006A
:102790005350424845005350424600535042420075
:1027A000535041484400535041484500535041461E
:1027B0000053504142004D4141206E6F7420310062
:1027C0004D4142206E6F74203100504146206E6FA3
:1027D00074203000504142206E6F7420310050410F
:1027E00048206E6F74203000504246206E6F742077
:1027F0003000504242206E6F742031005042482019
:102800006E6F74203000464C4F206E6F7420300085
:10281000464C43206E6F7420310046554F206E6F3A
:1028200074203000465543206E6F74203100686577
:102830006C7000696E69740072756E0070617573FA
:102840006500726573756D65006578746D006578F7
:10285000746D3D006578746300657874633D006550
:10286000786D6F0065786D6F3D00496E69746961C0
:102870006C697A656400496E697469616C20636F84
:102880006E646974696F6E732073657175656E63CC
:102890006520636F6D706C657465642E00436F6DA9
:1028A000706C657465642000206F6620004D61695E
:1028B0006E2070726F6772616D2073657175656EE1
:0E28C00063652066696E69736865642E0000AA
:020000040003F7
:10E000000D9489F10D94B2F10D94B2F10D94B2F129
:10E010000D94B2F10D94B2F10D94B2F10D94B2F1F0
:10E020000D94B2F10D94B2F10D94B2F10D94B2F1E0
:10E030000D94B2F10D94B2F10D94B2F10D94B2F1D0
:10E040000D94B2F10D94B2F10D94B2F10D94B2F1C0
:10E050000D94B2F10D94B2F10D94B2F10D94B2F1B0
:10E060000D94B2F10D94B2F10D94B2F10D94B2F1A0
:10E070000D94B2F10D94B2F10D94B2F10D94B2F190
:10E080000D94B2F10D94B2F10D94B2F10D94B2F180
:10E090000D94B2F10D94B2F10D94B2F10D94B2F170
:10E0A0000D94B2F10D94B2F10D94B2F10D94B2F160
:10E0B0000D94B2F10D94B2F10D94B2F10D94B2F150
:10E0C0000D94B2F10D94B2F10D94B2F10D94B2F140
:10E0D0000D94B2F10D94B2F10D94B2F10D94B2F130
:10E0E0000D94B2F141546D656761323536300041AF
:10E0F000726475696E6F206578706C6F72657220DE
:10E1000073746B3530305632206279204D4C530099
:10E11000426F6F746C6F616465723E004875683F52
:10E1200000436F6D70696C6564206F6E203D200048
:10E130004350552054797065202020203D20005FF9
:10E140005F4156525F415243485F5F3D2000415658
:10E1500052204C696243205665723D20004743437C
:10E160002056657273696F6E203D20004350552024
:10E1700049442020202020203D20004C6F7720663D
:10E18000757365202020203D20004869676820665F
:10E190007573652020203D200045787420667573D6
:10E1A00065202020203D20004C6F636B2066757336
:10E1B000652020203D20004D617220203720323024
:10E1C000313300312E362E3800342E332E350056A2
:10E1D00023202020414444522020206F7020636F70
:10E1E00064652020202020696E73747275637469E1
:10E1F0006F6E2061646472202020496E74657272B3
:10E20000757074006E6F20766563746F7200726A49
:10E210006D702020006A6D70200057686174207056
:10E220006F72743A00506F7274206E6F7420737541
:10E2300070706F72746564004D7573742062652030
:10E2400061206C6574746572002000577269747483
:10E25000696E672045450052656164696E672045B7
:10E26000450045452065727220636E743D00504F35
:10E27000525400303D5A65726F2061646472003FF1
:10E280003D43505520737461747300403D454550C3
:10E29000524F4D207465737400423D426C696E6B41
:10E2A000204C454400453D44756D70204545505215
:10E2B0004F4D00463D44756D7020464C415348001B
:10E2C000483D48656C70004C3D4C69737420492F83
:10E2D0004F20506F72747300513D51756974005234
:10E2E0003D44756D702052414D00563D73686F7707
:10E2F00020696E7465727275707420566563746FF0
:10E30000727300593D506F727420626C696E6B00BD
:10E310002A0011241FBECFEFD1E2DEBFCDBF01E046
:10E320000CBF12E0A0E0B2E0EEE1FDEF03E00BBFB6
:10E3300002C007900D92A030B107D9F712E0A0E01B
:10E34000B2E001C01D92AE30B107E1F70F9460F367
:10E350000D948DFE01E20EBF0FEF0DBF11241FBE05
:10E360000D9460F30D9400F020E030E040ED57E0B4
:10E3700005C0FA013197F1F72F5F3F4F2817390792
:10E38000C0F308959C01260F311DC901A0E0B0E043
:10E390002F5F3F4FABBFFC018791882361F08093D3
:10E3A000C6008091C00086FFFCCF8091C0008064D1
:10E3B0008093C000EACF08958DE08093C6008091DD
:10E3C000C00086FFFCCF8091C00080648093C000B5
:10E3D0008AE08093C6008091C00086FFFCCF8091C8
:10E3E000C00080648093C00008950F94C2F10F9420
:10E3F000DCF10895FC019081992359F09093C600B7
:10E400008091C00086FFFCCF8091C0008064809323
:10E41000C0003196992379F70895282F982F929567
:10E420009F70892F805D8A3308F0895F8093C600D2
:10E430008091C00086FFFCCF8091C00080648093F3
:10E44000C000822F8F70982F905D9A3308F0995FEB
:10E450009093C6008091C00086FFFCCF8091C000E1
:10E4600080648093C00008959C01FB01853691056E
:10E470001CF46330710594F0C90164E670E00F94F8
:10E480002EFE605D7F4F6093C6008091C00086FFC6
:10E49000FCCF8091C00080648093C0002B30310598
:10E4A00014F43297B4F0C90164E670E00F942EFEC4
:10E4B0006AE070E00F942EFE605D7F4F6093C600AF
:10E4C0008091C00086FFFCCF8091C0008064809363
:10E4D000C000C9016AE070E00F942EFEC0968093E0
:10E4E000C6008091C00086FFFCCF8091C000806490
:10E4F0008093C00008951F93182F8EE692EE60E07F
:10E500000F94C2F11093C6008091C00086FFFCCF2B
:10E510008091C00080648093C0000F94DCF11F9153
:10E5200008952F923F924F925F926F927F928F92B7
:10E530009F92AF92BF92CF92DF92EF92FF920F9392
:10E540001F93DF93CF93CDB7DEB762970FB6F894E2
:10E55000DEBF0FBECDBF382E622ECA01DB015C01CB
:10E560006D01772420E2222E2E010894411C511CBB
:10E570008BC081E0A81680E0B80681E0C80680E084
:10E58000D80628F0C601AA27BB270F940DF2BB2797
:10E59000AD2D9C2D8B2D0F940DF28A2D0F940DF225
:10E5A0002092C6008091C00086FFFCCF8091C00001
:10E5B00080648093C0009DE29093C6008091C0006B
:10E5C00086FFFCCF8091C00080648093C0002092C1
:10E5D000C6008091C00086FFFCCF8091C00080649F
:10E5E0008093C00019828601750188249924A1E0D6
:10E5F0003A1651F03A1620F0B2E03B1661F409C029
:10E600000BBFF701779007C0C7010F9477FE782EF4
:10E6100002C0F7017080872D0F940DF22092C60082
:10E620008091C00086FFFCCF8091C0008064809301
:10E63000C000872D8052F401EF70F0708F3520F408
:10E64000E40DF51D708204C0E40DF51D8EE280839B
:10E650000894E11CF11C011D111D0894811C911CE2
:10E6600090E18916910409F0C2CF80E190E0A0E02A
:10E67000B0E0A80EB91ECA1EDB1E198AC2010F9493
:10E68000FAF10F94DCF16A94662009F072CF629679
:10E690000FB6F894DEBF0FBECDBFCF91DF911F91B3
:10E6A0000F91FF90EF90DF90CF90BF90AF909F9031
:10E6B0008F907F906F905F904F903F902F90089534
:10E6C0002F923F924F925F926F927F928F929F9282
:10E6D000AF92BF92CF92DF92EF92FF920F931F9370
:10E6E000DF93CF93CDB7DEB7CD53D1400FB6F894BB
:10E6F000DEBF0FBECDBF01E20EBF0FEF0DBF94B75F
:10E70000F894A89514BE80916000886180936000A1
:10E7100010926000789493FF05C0E0910002F091A0
:10E7200001021995279A2F9A8091C00082608093E8
:10E73000C00080E18093C40088E18093C1000000A4
:10E74000EE24FF24870144E0A42EB12CCC24DD2448
:10E7500024C0C5010197F1F70894E11CF11C011DCB
:10E76000111D21E2E2162EE4F20620E0020720E06D
:10E77000120718F031E0C32ED12CC801B70127ECE5
:10E780003BE140E050E00F9441FE611571058105C9
:10E79000910519F485B1805885B98091C00087FD35
:10E7A00003C0C114D104A9F2A6014F5F5F4FC25E3E
:10E7B000DE4F59834883CE51D140C25EDE4F8881FF
:10E7C0009981CE51D140019711F00D9410FEC05D9A
:10E7D000DE4F19821882C053D14060E0C15DDE4F28
:10E7E0001882CF52D14088249924C35DDE4F19820C
:10E7F0001882CD52D140C05EDE4F188219821A8233
:10E800001B82C052D140CE5CDE4F188219821A8220
:10E810001B82C253D140EE24FF2487010BBFF701B6
:10E8200007911691C45CDE4F19830883CC53D14005
:10E830000D940BFEC25EDE4F28813981CE51D1404E
:10E840002130310509F52091C600C25EDE4F1982E4
:10E850001882CE51D14022C02F5F3F4F4F4F5F4FA4
:10E86000213082E138078AE7480780E0580780F0C6
:10E87000C45CDE4FE881F981CC53D140EF5FFF4F9C
:10E8800019F0EE27FF27099420E030E040E050E047
:10E890008091C00087FFE0CF2091C600C35DDE4FAE
:10E8A00048815981CD52D1404F5F5F4FC35DDE4FEC
:10E8B00059834883CD52D140213209F063C64A3092
:10E8C000510508F05FC60894811C911C53E0851621
:10E8D000910409F059C600E010E018C081E280936D
:10E8E000C6008091C00086FFFCCF8091C00080648C
:10E8F0008093C0002F5F3F4F2931310579F70F9486
:10E90000DCF10F5F1F4F0530110519F020E030E0FA
:10E91000E5CF10920A0210920B0210920C02109294
:10E920000D02109206021092070210920802109235
:10E930000902109202021092030210920402109235
:10E9400005028FEE90EE60E00F94F5F180E191EE1C
:10E9500060E00F94C2F18091C00087FFFCCF9091DE
:10E96000C600903608F09F759032B8F09093C600BC
:10E970008091C00086FFFCCF8091C00080648093AE
:10E98000C000A0E2A093C6008091C00086FFFCCF2B
:10E990008091C00080648093C000983409F4D7C18E
:10E9A0009934B8F4923409F459C1933458F490333B
:10E9B00019F1903308F4E3C59F33A1F1903409F0C5
:10E9C000DEC5BDC0953409F470C1963409F0D7C5D1
:10E9D00098C1923509F42BC2933538F49C3409F46C
:10E9E000F5C1913509F0CBC518C2963509F445C279
:10E9F000993509F0C4C567C483E792EE62E00F94CD
:10EA0000F5F110920602109207021092080210927D
:10EA1000090210920A0210920B0210920C0210923C
:10EA20000D0213C18FE792EE62E00F94F5F18FEEC5
:10EA300090EE60E00F94F5F181E291EE60E00F94CA
:10EA4000C2F187EB91EE60E00F94F5F180E391EE77
:10EA500060E00F94C2F184EE90EE60E00F94F5F167
:10EA60008FE391EE60E00F94C2F186E090E061E008
:10EA700070E00F9434F20F94DCF18DE591EE60E0DC
:10EA80000F94C2F189EC91EE60E00F94F5F18EE401
:10EA900091EE60E00F94C2F183EC91EE60E00F9490
:10EAA000F5F18CE691EE60E00F94C2F18EE10F94E7
:10EAB0000DF288E90F940DF281E00F940DF20F949E
:10EAC000DCF18BE791EE60E00F94C2F119E0E0E039
:10EAD000F0E010935700E4918E2F0F940DF20F94F5
:10EAE000DCF18AE891EE60E00F94C2F1E3E0F0E03F
:10EAF00010935700E4918E2F0F940DF20F94DCF1D8
:10EB000089E991EE60E00F94C2F1E2E0F0E0109349
:10EB10005700E4918E2F0F940DF20F94DCF188EAE8
:10EB200091EE60E00F94C2F1E1E0F0E01093570045
:10EB30001491812F0F940DF20F94DCF107CF8BE825
:10EB400092EE62E00F94F5F18BE492EE60E00F94A8
:10EB5000F5F10F94DCF100E010E019C0C8016F2D51
:10EB60000F947FFEFF2031F489E492EE60E00F9471
:10EB7000C2F10BC0F092C6008091C00086FFFCCFAE
:10EB80008091C00080648093C0000F5F1F4FC80158
:10EB900081519F41A0E0B0E0ABBFFC01F790BAE229
:10EBA000FB1621F0E2E000301E07C1F60F94DCF105
:10EBB0000F94DCF187E592EE60E00F94F5F10F948D
:10EBC000DCF1CC24DD2400E010E01EC0C8010F946D
:10EBD00077FEF82E882331F489E492EE60E00F94FA
:10EBE000C2F10BC08093C6008091C00086FFFCCFAD
:10EBF0008091C00080648093C000FE1419F00894D6
:10EC0000C11CD11C0F5F1F4FC80181519F41A0E063
:10EC1000B0E0ABBFFC01E790FAE2EF1621F022E092
:10EC20000030120799F60F94DCF10F94DCF182E6C4
:10EC300092EE60E00F94C2F1C60161E070E00F94C3
:10EC400034F20F94DCF10F94DCF110920202109276
:10EC50000302109204021092050278CE89E992EE26
:10EC600062E00F94F5F1279A2F9A16C02F9880E052
:10EC700090E0E0EDF7E03197F1F7019684369105E9
:10EC8000C1F72F9A80E090E0E0EDF7E03197F1F7DF
:10EC9000019684369105C1F78091C00087FFE6CFC9
:10ECA0008091C00087FFFCCF64C485EA92EE62E0E9
:10ECB0000F94F5F140910202509103026091040219
:10ECC0007091050281E020E10F9491F2809102029F
:10ECD00090910302A0910402B091050280509F4FD1
:10ECE000AF4FBF4F8093020290930302A0930402A0
:10ECF000B093050280509041A040B04008F426CE69
:10ED0000A4CF83EB92EE62E00F94F5F140910602FE
:10ED100050910702609108027091090280E020E1A1
:10ED20000F9491F28091060290910702A09108023F
:10ED3000B091090280509F4FAF4FBF4F80930602A2
:10ED400090930702A0930802B0930902FFCD80ECD4
:10ED500092EE62E00F94F5F183E792EE60E00F949B
:10ED6000F5F18FE792EE60E00F94F5F18BE892EE0B
:10ED700060E00F94F5F189E992EE60E00F94F5F10F
:10ED800085EA92EE60E00F94F5F183EB92EE60E09D
:10ED90000F94F5F180EC92EE60E00F94F5F187ECC2
:10EDA00092EE60E00F94F5F188ED92EE60E00F9442
:10EDB000F5F18FED92EE60E00F94F5F18AEE92EEB0
:10EDC00060E00F94F5F183E093EEBDCD87EC92EE19
:10EDD00062E00F94F5F181E40F947BF282E40F94EA
:10EDE0007BF283E40F947BF284E40F947BF285E45E
:10EDF0000F947BF286E40F947BF287E40F947BF20E
:10EE000088E40F947BF28AE40F947BF28BE40F94F6
:10EE10007BF28CE40F947BF299CD88ED92EE62E068
:10EE20000F94F5F1772473948824992409C48FED05
:10EE300092EE62E00F94F5F140910A0250910B02BC
:10EE400060910C0270910D0282E020E10F9491F22A
:10EE500080910A0290910B02A0910C02B0910D02D8
:10EE600080509F4FAF4FBF4F80930A0290930B0289
:10EE7000A0930C02B0930D0269CD8AEE92EE62E08F
:10EE80000F94F5F184EE90EE60E00F94F5F18FECC5
:10EE900091EE60E00F94F5F1662477244301CC5D98
:10EEA000DE4F19821882C452D140D401C301B695F5
:10EEB000A79597958795CA5DDE4F88839983AA8326
:10EEC000BB83C652D140CC5DDE4FA881B981C4520C
:10EED000D1401196CC5DDE4FB983A883C452D14096
:10EEE000CD0162E070E00F9434F2B0E2B093C6005E
:10EEF0008091C00086FFFCCF8091C0008064809329
:10EF0000C000EDE2E093C6008091C00086FFFCCF18
:10EF10008091C00080648093C000F0E2F093C6004E
:10EF20008091C00086FFFCCF8091C00080648093F8
:10EF3000C000CA5DDE4FE880F9800A811B81C6529D
:10EF4000D140BB27A12F902F8F2D0F940DF2CA5DBA
:10EF5000DE4F8881C652D1400F940DF2B0E2FB2EF5
:10EF6000F092C6008091C00086FFFCCF8091C00067
:10EF700080648093C0000DE30093C6008091C000C0
:10EF800086FFFCCF8091C00080648093C00010E2B7
:10EF90001093C6008091C00086FFFCCF8091C00016
:10EFA00080648093C0008BBEF3012791C65DDE4F65
:10EFB0002883CA52D140A22EBB24CC24DD2408943D
:10EFC000611C711C811C911C8BBEF3018791282E42
:10EFD0003324442455240894611C711C811C911C09
:10EFE0008BBEF3013791C55DDE4F3883CB52D140E4
:10EFF0000894611C711C811C911C8BBEF30147910C
:10F00000C45DDE4F4883CC52D140ADEFEA2EAFEF66
:10F01000FA2EAFEF0A2FAFEF1A2F6E0C7F1C801E57
:10F02000911E142D032DF22CEE24EA0CFB1C0C1D5A
:10F030001D1D0F940DF220E22093C6008091C000A8
:10F0400086FFFCCF8091C00080648093C000C65DC5
:10F05000DE4F8881CA52D1400F940DF230E23093D6
:10F06000C6008091C00086FFFCCF8091C000806404
:10F070008093C000C45DDE4F8881CC52D1400F9494
:10F080000DF240E24093C6008091C00086FFFCCFA5
:10F090008091C00080648093C000C55DDE4F888190
:10F0A000CB52D1400F940DF250E25093C6008091A4
:10F0B000C00086FFFCCF8091C00080648093C000B8
:10F0C0008FEFE8168FEFF80680E0080780E018075A
:10F0D00031F484E092EE60E00F94C2F1DFC0D80119
:10F0E000C7018070907CA070B0708050904CA040A0
:10F0F000B040D1F52FEF3FE340E050E0E222F322B1
:10F1000004231523CA5DDE4FA880B980CA80DB8046
:10F11000C652D140AE0CBF1CC01ED11EAA0CBB1CD7
:10F12000CC1CDD1C8EE092EE60E00F94C2F1BB2798
:10F13000A12F902F8F2D0F940DF28E2D0F940DF285
:10F1400030E23093C6008091C00086FFFCCF8091F2
:10F15000C00080648093C0004EE34093C60080915D
:10F16000C00086FFFCCF87C08EE09EEFA0E0B0E03D
:10F17000E822F9220A231B239CE0E91694E9F90608
:10F1800090E0090790E0190709F088C0C45DDE4FE0
:10F19000A881CC52D140EA2EFF2400E010E0102FCD
:10F1A0000F2DFE2CEE24C55DDE4FB881CB52D14031
:10F1B000EB0EF11C011D111DD601C501817090706F
:10F1C000A070B070DC0199278827E80EF91E0A1F8D
:10F1D0001B1F20EF30E040E050E0A222B322C42207
:10F1E000D52241E1AA0CBB1CCC1CDD1C4A95D1F7F1
:10F1F000EA0CFB1C0C1D1D1D81E090E0A0E0B0E0BE
:10F20000282239224A225B2235E1220C331C441C7D
:10F21000551C3A95D1F7E20CF31C041D151D57013E
:10F220006801AA0CBB1CCC1CDD1C85E192EE60E0E1
:10F230000F94C2F1C801AA27BB270F940DF2BB2778
:10F24000A12F902F8F2D0F940DF28E2D0F940DF274
:10F2500090E29093C6008091C00086FFFCCF809121
:10F26000C00080648093C000AEE3A093C60080918C
:10F27000C00086FFFCCF8091C00080648093C000F6
:10F28000C601AA27BB270F940DF2BB27AD2D9C2DDD
:10F290008B2D0F940DF28A2D0F940DF20F94DCF14B
:10F2A000CC5DDE4FE881F981C452D140F99709F471
:10F2B0004DCBF4E0EF2EF12C012D112D6E0C7F1CA7
:10F2C000801E911EF2CD83E093EE62E00F94F5F183
:10F2D0008AE192EE60E00F94C2F18091C00087FF56
:10F2E000FCCF1091C6001F751093C6008091C0001E
:10F2F00086FFFCCF8091C00080648093C0000F9493
:10F30000DCF1812F81548A3108F036C1163409F4BA
:10F3100095C0173490F4133409F44EC0143430F40B
:10F320001134F1F0123409F01DC130C0143409F465
:10F3300059C0153409F016C16BC01A3409F4C4C0A1
:10F340001B3438F4173409F48FC0183409F00AC19B
:10F35000A1C01B3409F4D2C01C3409F003C1E8C0B9
:10F360008FEF81B90DC082B1809582B980E090E0C5
:10F37000E0EDF7E03197F1F70196883C9105C1F790
:10F380008091C00087FFEFCF12B8EFC08FEF84B934
:10F390000DC085B1809585B980E090E0E0EDF7E0A3
:10F3A0003197F1F70196883C9105C1F78091C00033
:10F3B00087FFEFCF15B8D9C08FEF87B90DC088B1DF
:10F3C000809588B980E090E0E0EDF7E03197F1F7C3
:10F3D0000196883C9105C1F78091C00087FFEFCF6F
:10F3E00018B8C3C08FEF8AB90DC08BB180958BB9A7
:10F3F00080E090E0E0EDF7E03197F1F70196883C8E
:10F400009105C1F78091C00087FFEFCF1BB8ADC059
:10F410008FEF8DB90DC08EB180958EB980E090E0F0
:10F42000E0EDF7E03197F1F70196883C9105C1F7DF
:10F430008091C00087FFEFCF1EB897C08FEF80BBD1
:10F440000DC081B3809581BB80E090E0E0EDF7E0F6
:10F450003197F1F70196883C9105C1F78091C00082
:10F4600087FFEFCF11BA81C08FEF83BB0DC084B38C
:10F47000809584BB80E090E0E0EDF7E03197F1F714
:10F480000196883C9105C1F78091C00087FFEFCFBE
:10F4900014BA6BC08FEF809301010FC080910201FD
:10F4A00080958093020180E090E0E0EDF7E03197F5
:10F4B000F1F70196883C9105C1F78091C00087FF64
:10F4C000EDCF1092020151C08FEF809304010FC065
:10F4D0008091050180958093050180E090E0E0ED4A
:10F4E000F7E03197F1F70196883C9105C1F78091DB
:10F4F000C00087FFEDCF1092050137C08FEF8093DA
:10F5000007010FC08091080180958093080180E079
:10F5100090E0E0EDF7E03197F1F70196883C910536
:10F52000C1F78091C00087FFEDCF109208011DC088
:10F530008FEF80930A010FC080910B01809580931B
:10F540000B0180E090E0E0EDF7E03197F1F70196F4
:10F55000883C9105C1F78091C00087FFEDCF1092E4
:10F560000B0103C085E292EEEEC98091C00087FFD7
:10F57000FCCF8091C600EAC988E392EEE4C98CE131
:10F5800091EEE1C988249924933011F1943028F444
:10F59000913089F09230B8F408C0953061F195301F
:10F5A000F0F0963009F048C043C02B3109F042C951
:10F5B00091E06BE13FC96227C15DDE4F2883CF52E6
:10F5C000D14092E037C9B22FA0E0622793E032C960
:10F5D000822F90E0A82BB92B622794E02BC92E3004
:10F5E00009F039C3622795E0C05DDE4F19821882A9
:10F5F000C053D1401FC9E1E0F0E0EC0FFD1FC05D3A
:10F60000DE4F08811981C053D140E00FF11F2083E4
:10F610000F5F1F4FC05DDE4F19830883C053D14079
:10F6200062270A171B0709F005C9D80196E002C92D
:10F63000261709F010C303C0973009F0FBC87724E0
:10F640009981933109F412C19431C8F4963009F4C8
:10F65000D8C0973050F4923009F406C1933009F4C1
:10F660006DC0913009F059C253C0913109F477C08F
:10F67000923108F0BBC0903109F04FC2F5C098310B
:10F6800009F487C0993150F4953109F4EFC09531F0
:10F6900008F4C6C1963109F040C2C2C19A3109F4DA
:10F6A0006CC09A3108F491C09B3109F45BC09D3164
:10F6B00009F033C29D81903359F48F81882311F46E
:10F6C0009EE11CC0813011F091E018C098E916C08D
:10F6D000892F807591F0903539F4E0E0F0E089E011
:10F6E0008093570094910AC0983539F4E3E0F0E034
:10F6F00089E080935700949101C090E01A821B82A8
:10F700008D818C831D829E831F8227E030E009C299
:10F710001A8288E08B8381E48C8386E58D8382E581
:10F720008E8389E48F8383E5888780E589878FE5E9
:10F730008A8782E38B872BE030E0F3C18A818139AD
:10F7400041F0823941F0803911F48FE005C080E04A
:10F7500003C082E001C08AE01A828B8344C0772410
:10F76000739482C08D81882311F48EE12CC0813086
:10F7700011F081E028C088E926C01A82E1E0F0E0BB
:10F7800089E08093570084918B831C8224E030E0D1
:10F79000C8C18B81803589F48C81883039F4E2E0EE
:10F7A000F0E089E08093570084910DC0E0E0F0E044
:10F7B00089E080935700849106C0E3E0F0E089E09F
:10F7C0008093570084911A82DFCF8D81836C99E0FA
:10F7D000E1E0F0E0082E90935700E89507B600FCB2
:10F7E000FDCF1A821B8223E030E09BC180EC8A832C
:10F7F000CE5CDE4F188219821A821B82C253D1401E
:10F800008EC18A8190E0A0E0B0E0582F44273327D2
:10F8100022278B8190E0A0E0B0E0DC0199278827C7
:10F82000282B392B4A2B5B2B8D8190E0A0E0B0E098
:10F83000282B392B4A2B5B2B8C8190E0A0E0B0E089
:10F84000BA2FA92F982F8827282B392B4A2B5B2BCF
:10F85000220F331F441F551FC05EDE4F288339839C
:10F860004A835B83C052D1401A8259C13A81C95C34
:10F87000DE4F3883C753D140CA5CDE4F1882C6536F
:10F88000D1408B81C82EDD24CA5CDE4F488159816E
:10F89000C653D140C42AD52A933109F082C0CE5C28
:10F8A000DE4F88819981AA81BB81C253D1408050AB
:10F8B000904CA340B04030F583E0CE5CDE4FE88052
:10F8C000F9800A811B81C253D140F70100935B008C
:10F8D00080935700E89507B600FCFDCFCE5CDE4F65
:10F8E000088119812A813B81C253D14000501F4FAA
:10F8F0002F4F3F4FCE5CDE4F088319832A833B8313
:10F90000C253D140C05EDE4F488159816A817B81FC
:10F91000C052D140DE011B9631E08C9111962C91A2
:10F9200011971296C75CDE4F2883C953D140C85C3B
:10F93000DE4F1882C853D14090E0C85CDE4FE881AA
:10F94000F981C853D1408E2B9F2B0C01FA01609393
:10F950005B0030935700E89511244E5F5F4F6F4F67
:10F960007F4F0EEFE02E0FEFF02ECE0CDF1CC114F8
:10F97000D10499F685E0C05EDE4F088119812A81A5
:10F980003B81C052D140F80120935B008093570027
:10F99000E89507B600FCFDCF81E180935700E8951C
:10F9A00035C0C05EDE4F88819981AA81BB81C0527B
:10F9B000D140B695A795979587957C018601ABE0D8
:10F9C000AA2EB12CAC0EBD1E0BC0D5016D915D01F0
:10F9D000C7010F947FFE0894E11CF11C01501040F8
:10F9E0000115110591F7A60160E070E0440F551F65
:10F9F000661F771FC05EDE4FE880F9800A811B8199
:10FA0000C052D1404E0D5F1D601F711F1A82C05E33
:10FA1000DE4F488359836A837B83C052D1407FC0C5
:10FA2000FA80C55CDE4FF882CB53D140C65CDE4F16
:10FA30001882CA53D1408B81C82EDD24C65CDE4FAC
:10FA400008811981CA53D140C02AD12A1A828981DA
:10FA5000BE016D5F7F4F843121F59601C05EDE4FA0
:10FA6000E880F9800A811B81C052D1400BBFF701A9
:10FA700087919691DB018C9311969C936E5F7F4FDB
:10FA8000D801C7010296A11DB11DC05EDE4F88835B
:10FA90009983AA83BB83C052D14022503040F1F6F3
:10FAA00036C0C05EDE4F288139814A815B81C052F9
:10FAB000D1400894C108D108760100E010E0089414
:10FAC000C11CD11C0894E11CF11C011D111DE20E8A
:10FAD000F31E041F151F21BDBB27A52F942F832FB5
:10FAE00082BD2F5F3F4F4F4F5F4FF89A80B5DB01CC
:10FAF0008D93BD012E153F054007510761F7C05E8C
:10FB0000DE4F288339834A835B83C052D1409601FC
:10FB10002D5F3F4FFB01108204C080EC8A8322E0FE
:10FB200030E08BE18093C6008091C00086FFFCCF5F
:10FB30008091C00080648093C000C15DDE4FF88179
:10FB4000CF52D140F093C6008091C00086FFFCCF19
:10FB50008091C00080648093C000432F3093C60022
:10FB60008091C00086FFFCCF8091C00080648093AC
:10FB7000C000922F2093C6008091C00086FFFCCF6A
:10FB80008091C00080648093C0008EE08093C600A6
:10FB90008091C00086FFFCCF8091C000806480937C
:10FBA000C00065E1C15DDE4FE880CF52D1406E25D7
:10FBB00069276427FE01319610C090819093C6009A
:10FBC0008091C00086FFFCCF31968091C000806498
:10FBD0008093C0006927215030402115310569F715
:10FBE0006093C6008091C00086FFFCCF8091C0006A
:10FBF00080648093C00085B1805885B9772081F4F6
:10FC0000C15DDE4F0881CF52D1400F5FC15DDE4F35
:10FC10000883CF52D14090E0A0E0B0E00D941AF4F8
:10FC200027982F9880E090E020ED37E0F901319798
:10FC3000F1F7019684369105C9F700008091C00064
:10FC40008D7F8093C00081E180935700E895EE2777
:10FC5000FF270994FFCF90E00D941AF497FB092E2B
:10FC600007260AD077FD04D02ED006D000201AF443
:10FC7000709561957F4F0895F6F7909581959F4F08
:10FC80000895A1E21A2EAA1BBB1BFD010DC0AA1FDD
:10FC9000BB1FEE1FFF1FA217B307E407F50720F0F5
:10FCA000A21BB30BE40BF50B661F771F881F991F70
:10FCB0001A9469F760957095809590959B01AC01B9
:10FCC000BD01CF010895AA1BBB1B51E107C0AA1FAC
:10FCD000BB1FA617B70710F0A61BB70B881F991FED
:10FCE0005A95A9F780959095BC01CD010895F99991
:10FCF000FECF92BD81BDF89A992780B50895262F31
:10FD0000F999FECF1FBA92BD81BD20BD0FB6F89400
:0EFD1000FA9AF99A0FBE01960895F894FFCF63
:00000001FF
