:100000000C9409020C943A020C943A020C943A02B1
:100010000C943A020C943A020C943A020C943A0270
:100020000C943A020C943A020C943A020C943A0260
:100030000C943A020C943A020C943A020C943A0250
:100040000C943A020C943A020C943A020C943A0240
:100050000C943A020C943A020C943A020C94010C5F
:100060000C943A020C94CB0B0C94A10B0C943A0216
:100070000C943A020C943A020C943A020C943A0210
:100080000C943A020C943A020C943A020C943A0200
:100090000C943A020C943A020C943A020C943A02F0
:1000A0000C943A020C943A020C943A020C943A02E0
:1000B0000C943A020C943A020C943A020C943A02D0
:1000C0000C943A020C943A020C943A020C943A02C0
:1000D0000C943A020C943A020C943A020C943A02B0
:1000E0000C943A020C943C020C94B4060C94250730
:1000F0000C9430050C9492050C9482030C94BD036F
:100100000C949D030C944B0C0C94DD060C9423066C
:100110000C9493030C9401070C94AB030C94D2023F
:100120000C94540F0C94AF030C9469020C94780255
:100130000C946D070C94B9030C948C020C943A0344
:100140000C94B3030C947E030C94A1030C94B80399
:100150000C9443060C94BB050C9478030C948A030E
:100160000C9444070C94A5030C9497030C94DA05A3
:100170000C948D030C9403060C9491070C946C065C
:100180000C9495060C946F050C949A020C948603BB
:10019000457865637574696F6E2063616E63656C25
:1001A0006C656420696E697420636F6E646974693C
:1001B0006F6E73206E6F74206D617463682E0A0D0C
:1001C00000556E6B6E6F776E20636F6D6D616E6440
:1001D0002E205573652068656C7020636F6D6D61AE
:1001E0006E642E0A0D000D0A68656C7020202020B8
:1001F000202020202020203A2053686F777320751C
:100200007361626C6520636F6D6D616E64732E0A3D
:100210000D696E69742020202020202020202020BD
:100220003A2053657473206D616368696E6520655B
:100230006C656D656E747320746F20696E69746986
:10024000616C20636F6E646974696F6E732E0A0D42
:1002500072756E20202020202020202020202020A9
:100260003A2052756E20746865206D61696E207049
:10027000726F6772616D2E0A0D0A0D70617573657C
:100280002020202020202020203A205061757365F6
:1002900020746865206D61696E2070726F6772618D
:1002A0006D2E0A0D726573756D652020202020204B
:1002B000203A20526573756D6520746865206D6104
:1002C000696E2070726F6772616D2E0A0D000000FA
:1002D0002100240027002A002D00300033000101F6
:1002E0000000040107010A01000022002500280087
:1002F0002B002E003100340002010000050108012E
:100300000B01000020002300260029002C002F00F4
:100310003200000100000301060109010505050581
:10032000070508080808020202020A0A080804046D
:10033000040401010101010101010303030303039B
:100340000303040707070C0C0C0C0C0C0C0C02022A
:10035000020206060606060606060B0B0B0B0B0B27
:100360000B0B0102102020080810204010204080B4
:100370000201020108040201010204081020408069
:1003800080402010080402018004020180402010F7
:100390000804020108040201010204081020408040
:1003A000010204081020408000000A0B02090C0D15
:1003B0000E08070304010000000000000000000018
:1003C000000000000000000000000000000000002D
:1003D00000000000121110000000000000000000EA
:1003E000000000000000000000000000000050615C
:1003F000757365642E0A0D0052756E6E696E672EF8
:100400000A0D0053746F707065642E0A0D004B0C5A
:10041000540F11241FBECFEFD1E2DEBFCDBF00E0ED
:100420000CBF24E0AAEAB3E001C01D92AC39B207C8
:10043000E1F713E0A0E0B2E0E4EEF6E200E00BBF8B
:1004400002C007900D92AA3AB107D9F712E0C8E0AE
:10045000D2E000E006C021970109802FFE010E9432
:100460002B11C730D10780E00807A9F70E94220DA1
:100470000C9460130C940000AF92BF92CF92DF9265
:10048000EF92FF920F931F93CF93DF936C017B0149
:100490008B01040F151FEB015E01AE18BF08C017DA
:1004A000D10759F06991D601ED91FC910190F0814D
:1004B000E02DC6011995892B79F7C501DF91CF9100
:1004C0001F910F91FF90EF90DF90CF90BF90AF9072
:1004D0000895FC01538D448D252F30E0842F90E04A
:1004E000821B930B541710F0CF960895019708952F
:1004F000FC01918D828D981761F0A28DAE0FBF2FF8
:10050000B11D5D968C91928D9F5F9F73928F90E04D
:1005100008958FEF9FEF0895FC01918D828D9817BC
:1005200031F0828DE80FF11D858D90E008958FEFF9
:100530009FEF0895FC01918D228D892F90E0805CC2
:100540009F4F821B91098F739927089581EE93E045
:100550000E949A0221E0892B09F420E0822F08955D
:10056000FC01A48DA80FB92FB11DA35ABF4F2C9128
:10057000848D90E001968F739927848FA689B7891F
:100580002C93A089B1898C91837080648C93938D16
:10059000848D981306C00288F389E02D80818F7DB9
:1005A00080830895EF92FF920F931F93CF93DF9371
:1005B000EC0181E0888F9B8D8C8D98131AC0E8899F
:1005C000F989808185FF15C09FB7F894EE89FF896E
:1005D0006083E889F98980818370806480839FBF0C
:1005E00081E090E0DF91CF911F910F91FF90EF900C
:1005F0000895F62E0B8D10E00F5F1F4F0F7311271C
:10060000E02E8C8D8E110CC00FB607FCFACFE88956
:10061000F989808185FFF5CFCE010E94B002F1CF2C
:10062000EB8DEC0FFD2FF11DE35AFF4FF0829FB7CA
:10063000F8940B8FEA89FB8980818062CFCF0F937A
:100640001F93CF93DF938C01D0E0C0E0F801EC0F53
:10065000FD1F6491662341F081EE93E00E94D20277
:10066000892B11F02196F2CFCE01DF91CF911F910E
:100670000F910895CF93DF93EC01888D8823B9F013
:10068000AA89BB89E889F9898C9185FD03C080819D
:1006900086FD0DC00FB607FCF7CF8C9185FFF2CF1A
:1006A000808185FFEDCFCE010E94B002E9CFDF91BE
:1006B000CF9108958150823108F05AC0E82FF0E0C0
:1006C0008827EA59FC4F8F4F0C942B1186038A031D
:1006D00078037E038203B8038D03930397039D037E
:1006E000A103A503AB03AF03B803B303B903BD0371
:1006F000809180008F7780938000089580918000A2
:100700008F7DF9CF80918000877FF5CF84B58F777B
:1007100084BD089584B58F7DFBCF8091B0008F7725
:100720008093B00008958091B0008F7DF9CF8091C3
:1007300090008F77809390000895809190008F7D36
:10074000F9CF80919000877FF5CF8091A0008F77BF
:100750008093A00008958091A0008F7DF9CF8091B3
:10076000A000877FF5CF809120018F7780932001B3
:100770000895809120018F7DF9CF80912001877F9E
:10078000F5CFCF93DF93282F30E0F901E855FC4FE8
:100790008491F901EE59FC4FD491F901E45EFC4FCC
:1007A000C491CC23A1F081110E945A03EC2FF0E0F8
:1007B000EE0FFF1FEE5FFC4FA591B491EC91ED237E
:1007C00081E090E009F480E0DF91CF91089580E02E
:1007D00090E0FACF1F93CF93DF93282F30E0F901F9
:1007E000E855FC4F8491F901EE59FC4FD491F90181
:1007F000E45EFC4FC491CC23A9F0162F81110E9416
:100800005A03EC2FF0E0EE0FFF1FE851FD4FA591CA
:10081000B4918FB7F894EC91111108C0D095DE23F4
:10082000DC938FBFDF91CF911F910895DE2BF8CF1E
:10083000CF93DF9390E0FC01EE59FC4F2491845E4E
:100840009C4FFC0184918823D1F090E0880F991F80
:10085000FC01E253FD4FA591B491FC01E851FD4F1D
:10086000C591D49161110EC09FB7F8948C91E22F7D
:10087000E0958E238C932881E223E8839FBFDF914C
:10088000CF9108958FB7F894EC91E22BEC938FBF42
:10089000F6CF3FB7F8948091B0039091B103A09147
:1008A000B203B091B30326B5A89B05C02F3F19F042
:1008B0000196A11DB11D3FBFBA2FA92F982F8827E0
:1008C000BC01CD01620F711D811D911D42E0660FBB
:1008D000771F881F991F4A95D1F70895EBEBF3E036
:1008E000108284E081838AE0828388E0838383E0CE
:1008F000848387E085839EE096838093DD038FEF7A
:100900009FEF90930102809300021092DE031092F9
:10091000DF030895CF93DF93EC0188810E94C10328
:1009200061E0892B09F060E088810E94EA038E81F2
:100930009F818230910538F0880F991F880F991F89
:1009400005970197F1F7DF91CF9108951092E00399
:1009500060E08BE00E94EA0361E08CE00E94EA0321
:1009600060E08DE00E94EA038EEE93E00C941F039A
:100970008091B803813011F40C94A604089560E0CE
:100980008FE20E94EA038091DE038F5F8093DE0393
:100990000C94B8048091DE038F5F8093DE030C9487
:1009A000B804FC0101900020E9F73197AF01481B22
:1009B000590BBC0181EE93E00C943C028F929F9204
:1009C000AF92BF920F931F93CF93DF93CDB7DEB754
:1009D000A1970FB6F894DEBF0FBECDBF19A242306B
:1009E00008F44AE08E010F5D1F4F842E912CB12C2C
:1009F000A12CA50194010E940911E62FB901CA0199
:100A0000EA30F4F4E05DD801EE938D01232B242B22
:100A1000252B79F790E080E0109719F0CD010E9426
:100A2000D104A1960FB6F894DEBF0FBECDBFDF9103
:100A3000CF911F910F91BF90AF909F908F9008958D
:100A4000E95CE1CFCF93DF930E94D104EC018CE30A
:100A500092E00E94D1048C0F9D1FDF91CF910895E9
:100A60002091DE038091000290910102281719065F
:100A700099F08FE392E00E94220561E08CE20E94EF
:100A8000EA0361E08BE20E94EA038091DE0390E0DA
:100A9000909301028093000286E10E94C103892B9A
:100AA00019F481E08093AA0386E10E94C1030197B3
:100AB000A9F48091AA03882389F060E08CE20E9467
:100AC000EA0360E08BE20E94EA031092AA0380919D
:100AD000DE038F5F8093DE030C94B80408952091A9
:100AE000DE0380910002909101022817190699F007
:100AF00084E492E00E94220560E08CE20E94EA0316
:100B000060E08BE20E94EA038091DE0390E0909324
:100B10000102809300028091DE038F5F8093DE03E9
:100B20000C94B8042091DE038091000290910102A0
:100B30002817190679F084E492E00E94220561E00A
:100B40008CE20E94EA038091DE0390E09093010220
:100B50008093000286E10E94C103019759F460E08E
:100B60008CE20E94EA038091DE038F5F8093DE03B4
:100B70000C94B80408952091DE03809100029091B6
:100B800001022817190679F089E492E00E942205F3
:100B900060E08DE20E94EA038091DE0390E0909392
:100BA0000102809300028091DE038F5F8093DE0359
:100BB0000C94B8042091DE03809100029091010210
:100BC0002817190679F08EE492E00E94220561E070
:100BD0008DE20E94EA038091DE0390E0909301028F
:100BE0008093000282E20E94C103019759F460E001
:100BF0008DE20E94EA038091DE038F5F8093DE0323
:100C00000C94B80408952091DE0380910002909125
:100C100001022817190679F083E592E00E94220567
:100C200061E08FE20E94EA038091DE0390E09093FE
:100C30000102809300028EE10E94C103019711F42A
:100C40000C94BF0408952091DE03809100029091DE
:100C500001022817190679F088E592E00E94220522
:100C600061E08FE20E94EA038091DE0390E09093BE
:100C70000102809300028FE10E94C103019711F4E9
:100C80000C94BF0408952091DE038091000290919E
:100C900001022817190679F08DE592E00E942205DD
:100CA00061E08EE20E94EA038091DE0390E090937F
:100CB00001028093000280E20E94C103019721F4A7
:100CC00060E08EE20E94EA0383E20E94C103019782
:100CD00011F40C94CA0408952091DE03809100025F
:100CE000909101022817190679F082E692E00E949D
:100CF000220561E08EE20E94EA038091DE0390E02B
:100D0000909301028093000281E20E94C103019747
:100D100059F460E08EE20E94EA038091DE038F5F67
:100D20008093DE030C94B80408952091DE03809133
:100D30000002909101022817190679F087E692E0E7
:100D40000E94220560E080E30E94EA038091DE03B6
:100D500090E090930102809300028091DE038F5F08
:100D60008093DE030C94B8042091DE03809100028E
:100D7000909101022817190679F08DE692E00E9401
:100D8000220561E080E30E94EA038091DE0390E0A7
:100D900090930102809300028DE10E94C1030197AC
:100DA00059F460E080E30E94EA038091DE038F5FE4
:100DB0008093DE030C94B80408952091DE038091A3
:100DC0000002909101022817190681F083E792E052
:100DD0000E94220561E0809185040E94EA038091CF
:100DE000DE0390E090930102809300028BE10E9469
:100DF000C103019721F084E894E00C948A040C94D8
:100E0000CA042091DE03809100029091010228170C
:100E1000190681F088E792E00E94220560E0809147
:100E200085040E94EA038091DE0390E09093010222
:100E3000809300028CE10E94C103019721F084E8B5
:100E400094E00C948A040C94CA042091DE038091EF
:100E50000002909101022817190679F08DE792E0BF
:100E60000E94220560E083E30E94EA038091DE0392
:100E700090E090930102809300028091DE038F5FE7
:100E80008093DE030C94B8042091DE03809100026D
:100E9000909101022817190679F083E892E00E94E8
:100EA000220561E083E30E94EA038091DE0390E083
:100EB00090930102809300028AE10E94C10301978E
:100EC00059F460E083E30E94EA038091DE038F5FC0
:100ED0008093DE030C94B80408952091DE03809182
:100EE0000002909101022817190681F089E892E02A
:100EF0000E94220561E080918F040E94EA038091A4
:100F0000DE0390E0909301028093000288E10E944A
:100F1000C103019721F08EE894E00C948A040C94AC
:100F2000CA042091DE0380910002909101022817EB
:100F3000190681F08EE892E00E94220560E080911F
:100F40008F040E94EA038091DE0390E090930102F7
:100F50008093000289E10E94C103019721F08EE88D
:100F600094E00C948A040C94CA04CF93DF93BC01E0
:100F700090E080E04AE00E94DE04EC018CE392E025
:100F80000E94D1048C0F9D1FDF91CF9108951F9374
:100F9000CF93DF93EC01188190E080E00E94521023
:100FA000181729F0612F90E080E00E945A101981F3
:100FB00081E090E00E945210181729F0612F81E023
:100FC00090E00E945A10CE01DF91CF911F910895B9
:100FD0000C945210CF9381E090E00E94E807C82F54
:100FE00090E080E00E94E8072C2F30E0322F22278B
:100FF000820F932F911DCF9108950E94EA078F3F92
:101000009807E1F09093BA038093B9031092DC0340
:101010001092DB0382E090E00E94E8078F3FC9F066
:101020008093B80386E10E94C1030197D1F083E960
:1010300092E00E94220580E991E0BFC081E090E04B
:101040009093BA038093B90389EB93E00E94C7079A
:10105000DDCF1092B80360E082E090E00E945A1069
:10106000E1CF87E10E94C103019719F08DE992E079
:10107000E0CF88E10E94C103892B19F087EA92E052
:10108000D8CF89E10E94C103019719F081EB92E06A
:10109000D0CF8AE10E94C103892B19F08BEB92E03B
:1010A000C8CF8BE10E94C103892B19F085EC92E037
:1010B000C0CF8CE10E94C103019719F08FEC92E040
:1010C000B8CF8DE10E94C103892B19F089ED92E020
:1010D000B0CF8EE10E94C103892B19F083EE92E01C
:1010E000A8CF8FE10E94C103019719F08DEE92E025
:1010F000A0CF80E20E94C103892B19F087EF92E014
:1011000098CF81E20E94C103019709F058C050E1D5
:101110005093BB038FE08093BC0345E04093BD0335
:1011200036E03093BE0327E02093BF0394E0909312
:10113000C00381E08093C10362E06093C20363E077
:101140006093C3031092C4036BE06093C5036CE02B
:101150006093C6036DE06093C7036AE06093C803C1
:1011600069E06093C90368E06093CA035093CB03BE
:101170004093CC033093CD032093CE039093CF03C1
:1011800095E19093DD032FEF3FEF30930102209321
:1011900000021092DE038093DF038093E00361E09E
:1011A0008BE00E94EA0360E08CE00E94EA0360E0CA
:1011B0008DE00E94EA0388EF93E00C941F0381E026
:1011C00093E037CFFC0180819181009711F00C945E
:1011D000CF110895FB0144815581FC0124813581A3
:1011E0002417350778F080819181009759F0FB0131
:1011F000608171816115710529F00E94521321E00F
:10120000892B09F020E0822F0895FC01248135818B
:10121000232B39F421E0FB018081882349F020E071
:1012200007C0808191810E94421321E0892BB9F788
:10123000822F08950F931F93CF93DF93EC01888142
:101240009981009759F02A813B812617370730F0A2
:1012500081E0DF91CF911F910F9108958B016F5F16
:101260007F4F0E945812009759F0998388831B83FF
:101270000A832C813D81232B59F7FC011082E8CF92
:1012800080E0E7CFEF92FF920F931F93CF93DF930E
:10129000EC017B018A01BA010E941A092881398177
:1012A000811114C02115310519F0C9010E94CF1117
:1012B000198218821D821C821B821A82CE01DF9144
:1012C000CF911F910F91FF90EF9008951D830C8394
:1012D000B701C9010E944B13F1CFAF92BF92CF92D9
:1012E000DF92EF92FF920F931F93CF93DF93EC0166
:1012F0007B016A0185E0A82EB12C4530510520F410
:101300005A0195E0C92ED12C198218821B821A82AB
:101310001D821C8250E040E06EE372E0CE010E942C
:101320004209D70114960D911C91A016B10628F51B
:10133000C016D10608F48601D701ED91FC911197F2
:10134000E00FF11FD08010826D917C916A0D7B1DA2
:1013500061157105F1F0FB0101900020E9F731976B
:10136000AF01461B570BCE010E944209F701808155
:101370009181080F191FD801DC92CE01DF91CF9126
:101380001F910F91FF90EF90DF90CF90BF90AF90A3
:10139000089588819981009711F00E94CF111982D8
:1013A00018821D821C821B821A82E0CFFC011182EE
:1013B00010821382128215821482FB010190002098
:1013C000E9F73197AF01461B570B0C9442098F92F6
:1013D0009F92AF92BF92FF920F931F93CF93DF9391
:1013E000CDB7DEB72E970FB6F894DEBF0FBECDBFD8
:1013F000FF24F39481EE93E00E949A02892B09F472
:1014000063C181EE93E00E9478028D3009F038C10B
:1014100018861F821A8619861C861B8660917E0498
:1014200070917F046115710541F0409182045091E3
:101430008304CE0107960E9442096BE073E0CE015F
:1014400007960E940509882329F086EE91E00E9404
:101450001F0325C060E173E0CE0107960E940509D5
:10146000882399F00E946E04F092E00361E08BE023
:101470000E94EA0360E08CE00E94EA0360E08DE0F5
:101480000E94EA0388EF93E0E2CF65E173E0CE01CA
:1014900007960E940509882379F00E94FD07CE0176
:1014A00007960E94E20850E040E06EE372E08EE7AB
:1014B00094E00E9442099ECF69E173E0CE01079655
:1014C0000E940509882319F00E94A604E8CF6FE165
:1014D00073E0CE0107960E940509882319F0F09267
:1014E000E003DDCF66E273E0CE0107960E940509B6
:1014F000882329F00E94EA070E94B507D0CF6BE24B
:1015000073E0CE0101960E94D609BE016F5F7F4F46
:10151000CE0107960E94EA08182FCE0101960E947C
:10152000E2081123F1F04B855C85BE01695F7F4FB6
:10153000CE0101960E946D0989819A81009769F018
:101540000E94580F7E876D87CE0101960E94E208A7
:10155000CE010D960E94C707CDCF60E070E0CB01B1
:10156000F1CF61E373E0CE0107960E94050988235D
:1015700029F08091DB039091DC03BECF66E373E03A
:10158000CE0101960E94D609BE016F5F7F4FCE014A
:1015900007960E94EA08182FCE0101960E94E208E1
:1015A0001123E9F04B855C85BE01695F7F4FCE0159
:1015B00001960E946D0989819A81812C912C540198
:1015C000009719F00E94580F4B019092DC03809213
:1015D000DB03CE0101960E94E208C4018DCF6CE3CB
:1015E00073E0CE0107960E940509882381F082E00E
:1015F00090E00E94E807682F70E090E080E04AE009
:101600000E94DE048CE392E00E94D10448CF61E4A2
:1016100073E0CE0101960E94D609BE016F5F7F4F35
:10162000CE0107960E94EA08182FCE0101960E946B
:10163000E20881EC91E0112309F409CF4B855C8528
:10164000BE01695F7F4FCE0101960E946D098981BD
:101650009A8110E0009719F00E94580F162FCE01C2
:1016600001960E94E20882E090E00E945210181752
:1016700009F4BDCF612F82E090E00E945A10B7CFED
:1016800089831A8200918204109183040F5F1F4F97
:10169000B8018EE794E00E941A09882309F4AACEC3
:1016A00020917E0430917F04809182049091830484
:1016B000BE016F5F7F4F820F931F0E944B131093E9
:1016C00083040093820496CE2E960FB6F894DEBF64
:1016D0000FBECDBFDF91CF911F910F91FF90BF90B3
:1016E000AF909F908F9008950E94A60281110E9452
:1016F000E70980E090E0892B49F080E090E0892BB9
:1017000029F00E94000081110E94000080E090E01A
:10171000892B49F080E090E0892B29F00E9400009D
:1017200081110E94000080E090E0892B49F080E068
:1017300090E0892B29F00E94000081110C94000098
:1017400008951F920F920FB60F9211240BB60F92AD
:101750002F933F934F935F936F937F938F939F93B9
:10176000AF93BF93EF93FF9381EE93E00E94B0029B
:10177000FF91EF91BF91AF919F918F917F916F9169
:101780005F914F913F912F910F900BBE0F900FBE25
:101790000F901F9018951F920F920FB60F92112461
:1017A0000BB60F922F938F939F93EF93FF93E0913C
:1017B000F103F091F2038081E091F703F091F803D7
:1017C00082FD1DC090818091FA038F5F8F732091FD
:1017D000FB03821741F0E091FA03F0E0EF51FC4F78
:1017E000958F8093FA03FF91EF919F918F912F91A5
:1017F0000F900BBE0F900FBE0F901F901895808119
:10180000F2CF1F920F920FB60F9211242F933F9396
:101810008F939F93AF93BF938091AC039091AD034F
:10182000A091AE03B091AF033091AB0323E0230F3F
:101830002D3758F50196A11DB11D2093AB03809360
:10184000AC039093AD03A093AE03B093AF0380912C
:10185000B0039091B103A091B203B091B30301968C
:10186000A11DB11D8093B0039093B103A093B20367
:10187000B093B303BF91AF919F918F913F912F91FF
:101880000F900FBE0F901F90189526E8230F029619
:10189000A11DB11DD2CF8F929F92AF92BF92CF92D6
:1018A000DF92EF92FF92CF93DF93E1EEF3E01382AA
:1018B000128288EE93E0A0E0B0E084839583A68353
:1018C000B7838EE292E09183808385EC90E09587E8
:1018D000848784EC90E09787868780EC90E0918BFA
:1018E000808B81EC90E0938B828B82EC90E0958BE7
:1018F000848B86EC90E0978B868B118E128E138EE4
:10190000148ECEE8D4E080ED882E87E0982EA12CAE
:10191000B12C8E829F82A886B98684E3888385E372
:10192000898396E6C92EDC2C96EEE92E9FE3F92EEC
:10193000CA82DB82EC82FD8261E084E30E941804AB
:1019400061E085E30E94180420E030E044EB53E4BA
:101950006A817B818C819D810E94681020E030E04B
:1019600040E752E40E94940F9B01AC0160E070E0FC
:101970008CE893E40E9468109B01AC0160E070E089
:1019800080E89FE30E94681020E034E244E759E4D5
:101990000E94940F0E94DA106E837F838887998754
:1019A000C4E8D4E08E829F82A886B98681E38883CA
:1019B00082E38983CA82DB82EC82FD8261E081E37B
:1019C0000E94180461E082E30E94180420E030E0E5
:1019D00044EB53E46A817B818C819D810E94681075
:1019E00020E030E040E752E40E94940F9B01AC01FC
:1019F00060E070E08CE893E40E9468109B01AC0109
:101A000060E070E080E89FE30E94681020E034E22C
:101A100044E759E40E94940F0E94DA106E837F839A
:101A2000888799876EE372E08EE794E0DF91CF912B
:101A3000FF90EF90DF90CF90BF90AF909F908F90EE
:101A40000C94D609789484B5826084BD84B5816095
:101A500084BD85B5826085BD85B5816085BD809179
:101A60006E00816080936E001092810080918100F1
:101A700082608093810080918100816080938100E9
:101A8000809180008160809380008091B1008460AB
:101A90008093B1008091B00081608093B00080910C
:101AA0009100826080939100809191008160809389
:101AB0009100809190008160809390008091A100BE
:101AC00082608093A1008091A10081608093A10039
:101AD0008091A00081608093A000809121018260AC
:101AE0008093210180912101816080932101809167
:101AF000200181608093200180917A00846080932E
:101B00007A0080917A00826080937A0080917A00D6
:101B1000816080937A0080917A00806880937A0057
:101B20001092C100E091F103F091F20382E0808312
:101B3000E091ED03F091EE031082E091EF03F0915C
:101B4000F00380E180831092F903E091F503F091B6
:101B5000F60386E08083E091F303F091F403808143
:101B600080618083E091F303F091F40380818860C9
:101B70008083E091F303F091F40380818068808397
:101B8000E091F303F091F40380818F7D80830E94C4
:101B900049044B015C0194E6C92ED12CE12CF12CB7
:101BA0000E944904681979098A099B09683E7340B3
:101BB00081059105A8F321E0C21AD108E108F108D6
:101BC00088EE880E83E0981EA11CB11CC114D104BC
:101BD000E104F10429F787E493E00E94220560E024
:101BE00086E10E94180460E087E10E94180460E02A
:101BF00088E10E94180460E089E10E94180460E016
:101C00008AE10E94180460E08BE10E94180460E001
:101C10008CE10E94180460E08DE10E94180460E0ED
:101C20008EE10E94180460E08FE10E94180460E0D9
:101C300080E20E94180460E081E20E94180460E0E3
:101C400082E20E94180460E083E20E94180461E0CE
:101C50008CE20E94180461E08BE20E94180461E0AB
:101C60008FE20E94180461E08EE20E94180460E096
:101C700082E00E94180460E083E00E94180460E0A3
:101C800084E00E94180460E085E00E94180461E08E
:101C90008BE00E94180461E08CE00E94180461E06F
:101CA0008DE00E941804C1E082E00E94C103019708
:101CB00031F48091B703811102C0C093B70382E071
:101CC0000E94C103892BD1F48091B7038823B1F01E
:101CD0000E946E04C093E00361E08BE00E94EA037F
:101CE00060E08CE00E94EA0360E08DE00E94EA037D
:101CF00088EF93E00E941F031092B70383E00E94D5
:101D0000C103019731F48091B603811102C0C093E1
:101D1000B60383E00E94C103892B41F48091B6038E
:101D2000882321F00E94FD071092B60384E00E94F0
:101D3000C103019731F48091B503811102C0C093B2
:101D4000B50384E00E94C103892B41F48091B5035F
:101D5000882321F00E94A6041092B50385E00E941A
:101D6000C103019731F48091B403811102C0C09383
:101D7000B40385E00E94C103892B41F48091B40330
:101D8000882321F0C093E0031092B4038091E00314
:101D90008130B9F48091DF03811131C0E091DE031D
:101DA0008091DD03E81780F4F0E0E554FC4FE0811A
:101DB000F0E0EE0FFF1FE85FFD4F0190F081E02D96
:101DC00019950E94740B70CF1092E0031092DC03FF
:101DD0001092DB0360E08BE00E94EA0361E08CE09C
:101DE0000E94EA0360E08DE00E94EA0383E094E051
:101DF0000E941F0383E593E00E942205E2CF813019
:101E000001F7E091DE038091DD03E81768F280912D
:101E1000DB039091DC0301969093DC038093DB035A
:101E20008AE793E00E94D1046091DB037091DC03A8
:101E300090E080E04AE00E94DE0485E893E00E94A2
:101E4000D1048091B9039091BA030E94B5078091A3
:101E5000B803823011F40E94A6042091DB03309174
:101E6000DC038091B9039091BA032817390718F45D
:101E70001092DE03A6CF1092E0031092DC031092C2
:101E8000DB0360E08BE00E94EA0361E08CE00E94EB
:101E9000EA0360E08DE00E94EA0383E094E00E94A0
:101EA0001F038AE893E0A8CF8EE794E00C94E20841
:101EB0001F93FC0199278827BC01E89411911032E7
:101EC000E9F3193010F01E30C8F31B3251F01D3207
:101ED00049F4689406C00E947F0F610F711D811D37
:101EE000911D119110531A30B0F33EF490958095E6
:101EF000709561957F4F8F4F9F4F1F910895592F78
:101F0000482F372F262F660F771F881F991F660FC0
:101F1000771F881F991F620F731F841F951F660FFD
:101F2000771F881F991F08950E94A70F0C941810FF
:101F30000E940A1038F00E94111020F0952311F031
:101F40000C9401100C94071011240C944C100E9456
:101F5000291070F3959FC1F3950F50E0551F629FB4
:101F6000F001729FBB27F00DB11D639FAA27F00DF2
:101F7000B11DAA1F649F6627B00DA11D661F829F19
:101F80002227B00DA11D621F739FB00DA11D621FFE
:101F9000839FA00D611D221F749F3327A00D611D1B
:101FA000231F849F600D211D822F762F6A2F1124FD
:101FB0009F5750409AF0F1F088234AF0EE0FFF1F30
:101FC000BB1F661F771F881F91505040A9F79E3F87
:101FD000510580F00C9401100C944C105F3FE4F319
:101FE000983ED4F3869577956795B795F795E795DD
:101FF0009F5FC1F7FE2B880F911D9695879597F9E6
:10200000089597F99F6780E870E060E008959FEF7A
:1020100080EC089500240A9416161706180609067F
:10202000089500240A94121613061406050608954E
:10203000092E0394000C11F4882352F0BB0F40F4D6
:10204000BF2B11F460FF04C06F5F7F4F8F4F9F4F16
:10205000089557FD9058440F551F59F05F3F71F098
:102060004795880F97FB991F61F09F3F79F08795FF
:102070000895121613061406551FF2CF4695F1DF88
:1020800008C0161617061806991FF1CF8695710518
:10209000610508940895E894BB2766277727CB014C
:1020A00097F90895F999FECF92BD81BDF89A9927C5
:1020B00080B50895262FF999FECF1FBA92BD81BD34
:1020C00020BD0FB6F894FA9AF99A0FBE01960895BA
:1020D0000E947C100C9418100E94111058F00E945D
:1020E0000A1040F029F45F3F29F00C9401105111BF
:1020F0000C944C100C9407100E94291068F399233B
:10210000B1F3552391F3951B550BBB27AA276217F3
:102110007307840738F09F5F5F4F220F331F441F00
:10212000AA1FA9F335D00E2E3AF0E0E832D0915034
:102130005040E695001CCAF72BD0FE2F29D0660F21
:10214000771F881FBB1F261737074807AB07B0E864
:1021500009F0BB0B802DBF01FF2793585F4F3AF06A
:102160009E3F510578F00C9401100C944C105F3F89
:10217000E4F3983ED4F3869577956795B795F795F0
:102180009F5FC9F7880F911D9695879597F90895D8
:10219000E1E0660F771F881FBB1F62177307840774
:1021A000BA0720F0621B730B840BBA0BEE1F88F783
:1021B000E09508950E94311088F09F5798F0B92F4C
:1021C0009927B751B0F0E1F0660F771F881F991F6C
:1021D0001AF0BA95C9F714C0B13091F00E944B10B3
:1021E000B1E008950C944B10672F782F8827B85FC3
:1021F00039F0B93FCCF3869577956795B395D9F7C4
:102200003EF490958095709561957F4F8F4F9F4FCD
:102210000895A1E21A2EAA1BBB1BFD010DC0AA1F27
:10222000BB1FEE1FFF1FA217B307E407F50720F03F
:10223000A21BB30BE40BF50B661F771F881F991FBA
:102240001A9469F760957095809590959B01AC0103
:10225000BD01CF010895EE0FFF1F881F8BBF0790B0
:10226000F691E02D19940F931F93CF93DF93823053
:10227000910510F482E090E0E0919A04F0919B04C3
:1022800030E020E0B0E0A0E0309799F4211531056E
:1022900009F44AC0281B390B24303105D8F58A814E
:1022A0009B816115710589F1FB0193838283FE0196
:1022B00011C0408151810281138148175907E0F014
:1022C0004817590799F4109761F012960C931297DA
:1022D00013961C933296CF01DF91CF911F910F91EE
:1022E000089500939A0410939B04F4CF21153105AF
:1022F00051F04217530738F0A901DB019A01BD01E3
:10230000DF01F801C1CFEF01F9CF90939B048093D7
:102310009A04CDCFFE01E20FF31F819391932250D7
:10232000310939832883D7CF2091980430919904BB
:10233000232B41F42091040230910502309399043B
:102340002093980420910202309103022115310557
:1023500041F42DB73EB74091060250910702241B6D
:10236000350BE0919804F0919904E217F307A0F47B
:102370002E1B3F0B2817390778F0AC014E5F5F4FDB
:102380002417350748F04E0F5F1F50939904409370
:102390009804819391939FCFF0E0E0E09CCFCF939E
:1023A000DF930097E9F0FC01329713821282A0912B
:1023B0009A04B0919B04ED0130E020E01097A1F465
:1023C00020813181820F931F2091980430919904CC
:1023D0002817390709F061C0F0939904E093980435
:1023E000DF91CF910895EA01CE17DF07E8F54A8122
:1023F0005B819E0141155105B1F7E901FB83EA8339
:1024000049915991C40FD51FEC17FD0761F48081E4
:1024100091810296840F951FE901998388838281B7
:1024200093819B838A83F0E0E0E012968D919C91EA
:1024300013970097B9F52D913C911197CD01029614
:10244000820F931F2091980430919904281739071F
:1024500039F6309751F510929B0410929A04B0937C
:102460009904A0939804BCCFD383C2834081518147
:10247000840F951FC817D90761F44E5F5F4F88819D
:102480009981480F591F518340838A819B8193838F
:1024900082832115310509F0B0CFF0939B04E093BE
:1024A0009A049ECFFD01DC01C0CF13821282D7CFE8
:1024B0004F925F926F927F928F929F92AF92BF9254
:1024C000CF92DF92EF92FF920F931F93CF93DF9300
:1024D0008C01009799F4CB01DF91CF911F910F915F
:1024E000FF90EF90DF90CF90BF90AF909F908F9034
:1024F0007F906F905F904F900C943311FC01E60F2A
:10250000F71F9C0122503109E217F30708F4AEC00F
:10251000D901CD91DC911197C617D70720F1C530AD
:10252000D10578F0CE0104978617970750F0C61BA7
:10253000D70B2297C193D1936D937C93CF010E94C7
:10254000CF11C801DF91CF911F910F91FF90EF90B4
:10255000DF90CF90BF90AF909F908F907F906F90C3
:102560005F904F9008955B01AC1ABD0A4C018C0E30
:102570009D1EA0919A04B0919B04512C412CF12CEA
:10258000E12C109731F58091980490919904881569
:10259000990509F05CC04616570608F058C08091AE
:1025A000020290910302009741F48DB79EB74091CB
:1025B000060250910702841B950BE817F90708F0F3
:1025C00055C0F0939904E0939804F90171836083F6
:1025D000B8CF8D919C91119712966C90129713968B
:1025E0007C901397A815B90559F56C0142E0C40E0B
:1025F000D11CCA14DB0420F1AC014A195B09DA01D1
:102600001296159780F06282738251834083D901BC
:102610006D937C93E114F10471F0D7011396FC9350
:10262000EE9312978ECF22968C0F9D1FF901918306
:102630008083F301EFCFF0939B04E0939A0481CF62
:102640004816590608F42C017D01D3019ACFCB011D
:102650000E9433117C01009749F0AE01B8010E943D
:102660003913C8010E94CF1187016BCF10E000E041
:1026700068CFFB01DC0102C001900D924150504037
:10268000D8F70895FB01DC018D91019080190110AC
:10269000D9F3990B0895FB01DC0101900D92002004
:1026A000E1F70895FB01DC014150504030F08D917D
:1026B0000190801919F40020B9F7881B990B08952F
:1026C00012E0C8E0D2E000E006C0802FFE010E94C8
:1026D0002B112196011DC930D10780E00807A9F709
:0426E000F894FFCF9C
:1026E400FFFF00009C04800091076D074407250745
:1026F4000107DD06B40695066C06430623060306A9
:10270400DA05BB0592056F05300500000000D20212
:102714003C0269023A039A0278028C020D0A0053C1
:102724004D414E00534D414D0053465253005346C4
:10273400524D0053464C4F0053464C4300534655AC
:102744004F005346554300535042484400535042AF
:1027540048450053504246005350424200535041B2
:10276400484400535041484500535041460053509B
:102774004142004D4141206E6F742031004D414271
:10278400206E6F74203100504146206E6F742030EB
:1027940000504142206E6F74203100504148206E39
:1027A4006F74203000504246206E6F742030005009
:1027B4004242206E6F74203100504248206E6F7484
:1027C400203000464C4F206E6F74203000464C433E
:1027D400206E6F7420310046554F206E6F74203088
:1027E40000465543206E6F7420310068656C70009C
:1027F400696E69740072756E00706175736500723C
:102804006573756D65006578746D006578746D3DEC
:10281400006578746300657874633D0065786D6F56
:102824000065786D6F3D00496E697469616C697A01
:10283400656400496E697469616C20636F6E6469D4
:1028440074696F6E732073657175656E636520635B
:102854006F6D706C657465642E00436F6D706C658C
:102864007465642000206F6620004D61696E2070DD
:10287400726F6772616D2073657175656E63652033
:0A28840066696E69736865642E00D2
:00000001FF
