:100000000C9471010C94A2010C94A2010C94A20115
:100010000C94A2010C94A2010C94A2010C94A201D4
:100020000C94A2010C94A2010C94A2010C94A201C4
:100030000C94A2010C94A2010C94A2010C94A201B4
:100040000C94A2010C94A2010C94A2010C94A201A4
:100050000C94A2010C94A2010C94A2010C949D0595
:100060000C94A2010C9467050C943D050C94A2011C
:100070000C94A2010C94A2010C94A2010C94A20174
:100080000C94A2010C94A2010C94A2010C94A20164
:100090000C94A2010C94A2010C94A2010C94A20154
:1000A0000C94A2010C94A2010C94A2010C94A20144
:1000B0000C94A2010C94A2010C94A2010C94A20134
:1000C0000C94A2010C94A2010C94A2010C94A20124
:1000D0000C94A2010C94A2010C94A2010C94A20114
:1000E0000C94A2010C945E040C942D030C94F40166
:1000F0000C9478040C9472040C9423070C941F0342
:100100000C9437030C945A040C944E040C9423035F
:100110000C941B030C948A040C944A040C94000362
:100120000C94D1010C9436040C9466040C941E04B7
:100130000C9408030C9422040C943E040C94700458
:100140000C947C040C942E040C9486040C947E0471
:100150000C94FC020C9411030C9456040C943B0375
:100160000C9452040C942A040C943A020C94E0016E
:100170000C946C040C9442040C9404030C9415032A
:100180000C9402020C9436030C9460040C94320418
:100190000C943A040C9429030C9464040C940B03FF
:1001A0000C94F6020C946A040C9487020C94760466
:1001B0000C9446040C94A4010C9431030C94260472
:1001C00000002100240027002A002D003000330009
:1001D00001010000040107010A01000022002500BE
:1001E00028002B002E003100340002010000050120
:1001F00008010B01000020002300260029002C002C
:100200002F0032000001000003010601090105056D
:100210000505070508080808020202020A0A08087C
:1002200004040404010101010101010103030303AA
:1002300003030303040707070C0C0C0C0C0C0C0C39
:100240000202020206060606060606060B0B0B0B4A
:100250000B0B0B0B0102102020080810204010206F
:10026000408002010201080402010102040810207A
:100270004080804020100804020180040201804078
:1002800020100804020108040201010204081020E1
:100290004080010204081020408000000A0B02097F
:1002A0000C0D0E0807030401000000000000000010
:1002B000000000000000000000000000000000003E
:1002C00000000000000012111000000000000000FB
:1002D000000000000000000000000000000000001E
:1002E000230711241FBECFEFD1E2DEBFCDBF00E058
:1002F0000CBF12E0A0E0B2E0E8EFFEE000E00BBFD0
:1003000002C007900D92A036B107D9F723E0A0E60E
:10031000B2E001C01D92A930B207E1F711E0C1E7D8
:10032000D1E000E006C021970109802FFE010E9464
:100330007207C037D10780E00807A9F70E94E705D8
:100340000C947A070C940000AF92BF92CF92DF9288
:10035000EF92FF920F931F93CF93DF936C017B017A
:100360008B01040F151FEB015E01AE18BF08C0170B
:10037000D10759F06991D601ED91FC910190F0817E
:10038000E02DC6011995892B79F7C501DF91CF9131
:100390001F910F91FF90EF90DF90CF90BF90AF90A3
:1003A0000895FC01538D448D252F30E0842F90E07B
:1003B000821B930B541710F0CF9608950197089560
:1003C000FC01918D828D981761F0A28DAE0FBF2F29
:1003D000B11D5D968C91928D9F5F9F73928F90E07F
:1003E00008958FEF9FEF0895FC01918D828D9817EE
:1003F00031F0828DE80FF11D858D90E008958FEF2B
:100400009FEF0895FC01918D228D892F90E0805CF3
:100410009F4F821B91098F73992708958CE692E074
:100420000E94020221E0892B09F420E0822F089526
:10043000FC01A48DA80FB92FB11DA35ABF4F2C9159
:10044000848D90E001968F739927848FA689B78950
:100450002C93A089B1898C91837080648C93938D47
:10046000848D981306C00288F389E02D80818F7DEA
:1004700080830895EF92FF920F931F93CF93DF93A2
:10048000EC0181E0888F9B8D8C8D98131AC0E889D0
:10049000F989808185FF15C09FB7F894EE89FF899F
:1004A0006083E889F98980818370806480839FBF3D
:1004B00081E090E0DF91CF911F910F91FF90EF903D
:1004C0000895F62E0B8D10E00F5F1F4F0F7311274D
:1004D000E02E8C8D8E110CC00FB607FCFACFE88988
:1004E000F989808185FFF5CFCE010E941802F1CFF6
:1004F000EB8DEC0FFD2FF11DE35AFF4FF0829FB7FC
:10050000F8940B8FEA89FB8980818062CFCFCF93EB
:10051000DF93EC01888D8823B9F0AA89BB89E8892B
:10052000F9898C9185FD03C0808186FD0DC00FB6D1
:1005300007FCF7CF8C9185FFF2CF808185FFEDCF4F
:10054000CE010E941802E9CFDF91CF91089580E09B
:1005500090E0892B29F00E940E0281110E94000078
:1005600080E090E0892B49F080E090E0892B29F031
:100570000E94000081110E94000080E090E0892B21
:1005800049F080E090E0892B29F00E940000811161
:100590000E94000080E090E0892B49F080E090E02C
:1005A000892B29F00E94000081110C94000008950D
:1005B0008150823108F05AC0E82FF0E08827EC51D2
:1005C000FD4F8F4F0C94720704030803F602FC02E0
:1005D000000336030B03110315031B031F0323033F
:1005E00029032D033603310337033B038091800039
:1005F0008F77809380000895809180008F7DF9CF60
:1006000080918000877FF5CF84B58F7784BD089572
:1006100084B58F7DFBCF8091B0008F778093B00041
:1006200008958091B0008F7DF9CF809190008F77F1
:10063000809390000895809190008F7DF9CF8091F4
:100640009000877FF5CF8091A0008F778093A000E6
:1006500008958091A0008F7DF9CF8091A000877FC1
:10066000F5CF809120018F778093200108958091AC
:1006700020018F7DF9CF80912001877FF5CFCF9327
:10068000DF93282F30E0F901E656FD4F8491F90100
:10069000EC5AFD4FD491F901E25FFD4FC491CC2398
:1006A000A1F081110E94D802EC2FF0E0EE0FFF1FA5
:1006B000EC50FE4FA591B491EC91ED2381E090E0D8
:1006C00009F480E0DF91CF91089580E090E0FACFC7
:1006D0001F93CF93DF93282F30E0F901E656FD4FAB
:1006E0008491F901EC5AFD4FD491F901E25FFD4F7D
:1006F000C491CC23A9F0162F81110E94D802EC2FAF
:10070000F0E0EE0FFF1FE652FE4FA591B4918FB7B8
:10071000F894EC91111108C0D095DE23DC938FBFC3
:10072000DF91CF911F910895DE2BF8CFCF93DF9308
:1007300090E0FC01EC5AFD4F2491825F9D4FFC013B
:1007400084918823D1F090E0880F991FFC01E05438
:10075000FE4FA591B491FC01E652FE4FC591D49194
:1007600061110EC09FB7F8948C91E22FE0958E2313
:100770008C932881E223E8839FBFDF91CF91089576
:100780008FB7F894EC91E22BEC938FBFF6CF3FB785
:10079000F8948091660290916702A0916802B091EE
:1007A000690226B5A89B05C02F3F19F00196A11D2F
:1007B000B11D3FBFBA2FA92F982F8827BC01CD01AB
:1007C000620F711D811D911D42E0660F771F881F0A
:1007D000991F4A95D1F708958F929F92AF92BF9239
:1007E000CF92DF92EF92FF924B015C010E94C70310
:1007F0006B017C010E94C7036C197D098E099F095A
:10080000683E734081059105A8F321E0821A9108A2
:10081000A108B10888EEC80E83E0D81EE11CF11CC7
:1008200081149104A104B10429F7FF90EF90DF90A7
:10083000CF90BF90AF909F908F90089561E086E138
:100840000C94680361E081E20C94680360E080E24C
:100850000C94680361E083E20C94680360E082E238
:100860000C94680361E080E20C94680361E082E22A
:100870000C94680360E083E20C94680361E08EE10D
:100880000C94680361E089E10C94680360E088E1FE
:100890000C94680360E08AE10C94680361E08AE1EB
:1008A0000C94680361E088E10C94680360E089E1DE
:1008B0000C94680361E08CE10C9468030C945A0476
:1008C00060E08BE10C9468030C94600460E08DE1BF
:1008D0000C9468030C94660461E08DE10C94680349
:1008E0000C946C0461E08BE10C9468030C9472042A
:1008F00060E08CE10C9468030C94780461E086E17C
:100900000E94680361E087E10C94680360E086E17F
:100910000C9468030C94860461E086E10E946803ED
:1009200061E087E10E94680360E088E10E9468035B
:1009300061E089E10E94680360E08AE10E94680347
:1009400060E08BE10E94680361E08CE10E94680333
:1009500060E08DE10E94680360E08EE10E94680320
:1009600061E08FE10E94680360E080E20E9468031A
:1009700061E081E20E94680360E082E20E94680315
:1009800061E083E20E946803109260020895FC0116
:1009900001900020E9F73197AF01481B590BBC01CA
:1009A0008CE692E00C94A401CF92DF92EF92FF923A
:1009B0000F931F93CF93DF93CDB7DEB7A1970FB6F9
:1009C000F894DEBF0FBECDBF209160022E3108F03B
:1009D00049C030E050E040E019A28E010F5D1F4F8A
:1009E0009AE0C92ED12CE12CF12CCA01B901A70142
:1009F00096010E945007605DF80162938F012115F6
:100A000031054105510589F7309719F0CF010E9452
:100A1000C7048EE492E00E94C704E0916002F0E017
:100A2000EE0FFF1FE050FE4F0190F081E02D199571
:100A3000809160028F5F809360026AE070E080E0E6
:100A400090E00E94EC03A1960FB6F894DEBF0FBEB3
:100A5000CDBFDF91CF911F910F91FF90EF90DF906D
:100A6000CF9008951092600281E592E00E94C70441
:100A70008EE492E00E94C704E6CF1F920F920FB659
:100A80000F9211240BB60F922F933F934F935F93C6
:100A90006F937F938F939F93AF93BF93EF93FF9346
:100AA0008CE692E00E941802FF91EF91BF91AF9106
:100AB0009F918F917F916F915F914F913F912F9176
:100AC0000F900BBE0F900FBE0F901F9018951F92A6
:100AD0000F920FB60F9211240BB60F922F938F9394
:100AE0009F93EF93FF93E0917C02F0917D028081D0
:100AF000E0918202F091830282FD1DC0908180917D
:100B000085028F5F8F7320918602821741F0E091FA
:100B10008502F0E0E459FD4F958F80938502FF91A7
:100B2000EF919F918F912F910F900BBE0F900FBE61
:100B30000F901F9018958081F2CF1F920F920FB6E1
:100B40000F9211242F933F938F939F93AF93BF9353
:100B50008091620290916302A0916402B09165025B
:100B60003091610223E0230F2D3758F50196A11D26
:100B7000B11D209361028093620290936302A0935F
:100B80006402B09365028091660290916702A09121
:100B90006802B09169020196A11DB11D80936602A1
:100BA00090936702A0936802B0936902BF91AF91DE
:100BB0009F918F913F912F910F900FBE0F901F909B
:100BC000189526E8230F0296A11DB11DD2CF789467
:100BD00084B5826084BD84B5816084BD85B5826042
:100BE00085BD85B5816085BD80916E0081608093F3
:100BF0006E0010928100809181008260809381005C
:100C0000809181008160809381008091800081606B
:100C1000809380008091B10084608093B1008091C6
:100C2000B00081608093B0008091910082608093D9
:100C3000910080919100816080939100809190005B
:100C40008160809390008091A10082608093A100D8
:100C50008091A10081608093A1008091A0008160BB
:100C60008093A00080912101826080932101809176
:100C70002101816080932101809120018160809316
:100C8000200180917A00846080937A0080917A00BC
:100C9000826080937A0080917A00816080937A00EC
:100CA00080917A00806880937A001092C100E09170
:100CB0007C02F0917D0282E08083E0917802F091E5
:100CC00079021082E0917A02F0917B0280E18083C8
:100CD00010928402E0918002F091810286E080838C
:100CE000E0917E02F0917F02808180618083E091BB
:100CF0007E02F0917F02808188608083E0917E0295
:100D0000F0917F02808180688083E0917E02F09183
:100D10007F0280818F7D808364E670E080E090E0D8
:100D20000E94EC0361E086E10E94960361E087E1A6
:100D30000E94960361E088E10E94960361E089E1E8
:100D40000E94960361E08AE10E94960361E08BE1D4
:100D50000E94960361E08CE10E94960361E08DE1C0
:100D60000E94960361E08EE10E94960361E08FE1AC
:100D70000E94960361E080E20E94960361E081E2B6
:100D80000E94960361E082E20E94960361E083E2A2
:100D90000E94960360E086E30E94960360E087E38A
:100DA0000E94960360E088E30E9496030E948C04F0
:100DB00011E086E30E943F03019741F40E948C04F6
:100DC0006AE070E080E090E00E94EC0387E30E941C
:100DD0003F03019731F480916B02811102C010939F
:100DE0006B0287E30E943F03892B41F480916B02E1
:100DF000882321F00E94D40410926B0288E30E94A1
:100E00003F03019731F480916A02811102C010936F
:100E10006A0288E30E943F03892B91F480916A0261
:100E2000882371F0CFE1D0E00E94D4046AE070E042
:100E300080E090E00E94EC032197B1F710926A02E3
:100E40000E94A702B6CFECE6F2E01382128288EE8F
:100E500093E0A0E0B0E084839583A683B78380E429
:100E600092E09183808385EC90E09587848784EC81
:100E700090E09787868780EC90E0918B808B81EC67
:100E800090E0938B828B82EC90E0958B848B86EC48
:100E900090E0978B868B118E128E138E148E089590
:100EA000A1E21A2EAA1BBB1BFD010DC0AA1FBB1F6E
:100EB000EE1FFF1FA217B307E407F50720F0A21BE0
:100EC000B30BE40BF50B661F771F881F991F1A944D
:100ED00069F760957095809590959B01AC01BD0177
:100EE000CF010895EE0FFF1F881F8BBF0790F6916B
:080EF000E02D1994F894FFCFE6
:100EF80086047E04780472046C04660460045A0450
:100F0800560452044E044A04460442043E043A0479
:100F1800360432042E042A04260422048A041E04F9
:100F28007C04760470046A0464045E040000000013
:100F38003A02A401D10187020202E001F4010D0A7C
:100F48000053657175656E6365206F766572000084
:00000001FF
